{
  "contractName": "Battleship",
  "abi": [
    {
      "constant": true,
      "inputs": [
        {
          "name": "",
          "type": "uint256"
        }
      ],
      "name": "p1LogOfGuesses",
      "outputs": [
        {
          "name": "",
          "type": "uint256"
        }
      ],
      "payable": false,
      "stateMutability": "view",
      "type": "function"
    },
    {
      "constant": true,
      "inputs": [],
      "name": "badActor1",
      "outputs": [
        {
          "name": "",
          "type": "address"
        }
      ],
      "payable": false,
      "stateMutability": "view",
      "type": "function"
    },
    {
      "constant": true,
      "inputs": [
        {
          "name": "",
          "type": "uint256"
        }
      ],
      "name": "p1Hits",
      "outputs": [
        {
          "name": "",
          "type": "uint256"
        }
      ],
      "payable": false,
      "stateMutability": "view",
      "type": "function"
    },
    {
      "constant": true,
      "inputs": [
        {
          "name": "",
          "type": "address"
        }
      ],
      "name": "balances",
      "outputs": [
        {
          "name": "",
          "type": "uint256"
        }
      ],
      "payable": false,
      "stateMutability": "view",
      "type": "function"
    },
    {
      "constant": true,
      "inputs": [],
      "name": "forfeit1",
      "outputs": [
        {
          "name": "",
          "type": "address"
        }
      ],
      "payable": false,
      "stateMutability": "view",
      "type": "function"
    },
    {
      "constant": true,
      "inputs": [],
      "name": "p2SuccessfulGuesses",
      "outputs": [
        {
          "name": "",
          "type": "uint256"
        }
      ],
      "payable": false,
      "stateMutability": "view",
      "type": "function"
    },
    {
      "constant": true,
      "inputs": [],
      "name": "player2",
      "outputs": [
        {
          "name": "",
          "type": "address"
        }
      ],
      "payable": false,
      "stateMutability": "view",
      "type": "function"
    },
    {
      "constant": true,
      "inputs": [],
      "name": "p1SuccessfulGuesses",
      "outputs": [
        {
          "name": "",
          "type": "uint256"
        }
      ],
      "payable": false,
      "stateMutability": "view",
      "type": "function"
    },
    {
      "constant": true,
      "inputs": [],
      "name": "owner",
      "outputs": [
        {
          "name": "",
          "type": "address"
        }
      ],
      "payable": false,
      "stateMutability": "view",
      "type": "function"
    },
    {
      "constant": true,
      "inputs": [
        {
          "name": "",
          "type": "uint256"
        }
      ],
      "name": "p2Misses",
      "outputs": [
        {
          "name": "",
          "type": "bool"
        }
      ],
      "payable": false,
      "stateMutability": "view",
      "type": "function"
    },
    {
      "constant": true,
      "inputs": [],
      "name": "turnCount",
      "outputs": [
        {
          "name": "",
          "type": "int256"
        }
      ],
      "payable": false,
      "stateMutability": "view",
      "type": "function"
    },
    {
      "constant": true,
      "inputs": [],
      "name": "startTurn",
      "outputs": [
        {
          "name": "",
          "type": "uint256"
        }
      ],
      "payable": false,
      "stateMutability": "view",
      "type": "function"
    },
    {
      "constant": true,
      "inputs": [
        {
          "name": "",
          "type": "uint256"
        }
      ],
      "name": "p1Misses",
      "outputs": [
        {
          "name": "",
          "type": "bool"
        }
      ],
      "payable": false,
      "stateMutability": "view",
      "type": "function"
    },
    {
      "constant": true,
      "inputs": [],
      "name": "stage",
      "outputs": [
        {
          "name": "",
          "type": "uint8"
        }
      ],
      "payable": false,
      "stateMutability": "view",
      "type": "function"
    },
    {
      "constant": true,
      "inputs": [],
      "name": "minimumBet",
      "outputs": [
        {
          "name": "",
          "type": "uint256"
        }
      ],
      "payable": false,
      "stateMutability": "view",
      "type": "function"
    },
    {
      "constant": true,
      "inputs": [],
      "name": "p1Position",
      "outputs": [
        {
          "name": "",
          "type": "uint256"
        }
      ],
      "payable": false,
      "stateMutability": "view",
      "type": "function"
    },
    {
      "constant": true,
      "inputs": [],
      "name": "player1",
      "outputs": [
        {
          "name": "",
          "type": "address"
        }
      ],
      "payable": false,
      "stateMutability": "view",
      "type": "function"
    },
    {
      "constant": true,
      "inputs": [
        {
          "name": "",
          "type": "uint256"
        }
      ],
      "name": "p2Hits",
      "outputs": [
        {
          "name": "",
          "type": "uint256"
        }
      ],
      "payable": false,
      "stateMutability": "view",
      "type": "function"
    },
    {
      "constant": true,
      "inputs": [],
      "name": "forfeit2",
      "outputs": [
        {
          "name": "",
          "type": "address"
        }
      ],
      "payable": false,
      "stateMutability": "view",
      "type": "function"
    },
    {
      "constant": true,
      "inputs": [],
      "name": "gameId",
      "outputs": [
        {
          "name": "",
          "type": "uint256"
        }
      ],
      "payable": false,
      "stateMutability": "view",
      "type": "function"
    },
    {
      "constant": true,
      "inputs": [
        {
          "name": "",
          "type": "uint256"
        }
      ],
      "name": "p2LogOfGuesses",
      "outputs": [
        {
          "name": "",
          "type": "uint256"
        }
      ],
      "payable": false,
      "stateMutability": "view",
      "type": "function"
    },
    {
      "constant": true,
      "inputs": [],
      "name": "p2Position",
      "outputs": [
        {
          "name": "",
          "type": "uint256"
        }
      ],
      "payable": false,
      "stateMutability": "view",
      "type": "function"
    },
    {
      "constant": true,
      "inputs": [],
      "name": "badActor2",
      "outputs": [
        {
          "name": "",
          "type": "address"
        }
      ],
      "payable": false,
      "stateMutability": "view",
      "type": "function"
    },
    {
      "constant": true,
      "inputs": [
        {
          "name": "",
          "type": "uint256"
        }
      ],
      "name": "players",
      "outputs": [
        {
          "name": "",
          "type": "address"
        }
      ],
      "payable": false,
      "stateMutability": "view",
      "type": "function"
    },
    {
      "inputs": [],
      "payable": false,
      "stateMutability": "nonpayable",
      "type": "constructor"
    },
    {
      "payable": true,
      "stateMutability": "payable",
      "type": "fallback"
    },
    {
      "anonymous": false,
      "inputs": [
        {
          "indexed": false,
          "name": "gameId",
          "type": "uint256"
        }
      ],
      "name": "StartOfGame",
      "type": "event"
    },
    {
      "anonymous": false,
      "inputs": [
        {
          "indexed": false,
          "name": "gameId",
          "type": "uint256"
        }
      ],
      "name": "AcceptTheChallenge",
      "type": "event"
    },
    {
      "anonymous": false,
      "inputs": [
        {
          "indexed": false,
          "name": "gameId",
          "type": "uint256"
        }
      ],
      "name": "TakeYourTurnAttacking",
      "type": "event"
    },
    {
      "anonymous": false,
      "inputs": [
        {
          "indexed": false,
          "name": "gameId",
          "type": "uint256"
        }
      ],
      "name": "GameIsOver",
      "type": "event"
    },
    {
      "anonymous": false,
      "inputs": [
        {
          "indexed": false,
          "name": "gameId",
          "type": "uint256"
        }
      ],
      "name": "DeclareTheWinner",
      "type": "event"
    },
    {
      "constant": true,
      "inputs": [],
      "name": "getLengthP1",
      "outputs": [
        {
          "name": "length",
          "type": "uint256"
        }
      ],
      "payable": false,
      "stateMutability": "view",
      "type": "function"
    },
    {
      "constant": true,
      "inputs": [],
      "name": "getLengthP2",
      "outputs": [
        {
          "name": "length",
          "type": "uint256"
        }
      ],
      "payable": false,
      "stateMutability": "view",
      "type": "function"
    },
    {
      "constant": true,
      "inputs": [],
      "name": "getHitsP1",
      "outputs": [
        {
          "name": "length",
          "type": "uint256"
        }
      ],
      "payable": false,
      "stateMutability": "view",
      "type": "function"
    },
    {
      "constant": true,
      "inputs": [],
      "name": "getHitsP2",
      "outputs": [
        {
          "name": "length",
          "type": "uint256"
        }
      ],
      "payable": false,
      "stateMutability": "view",
      "type": "function"
    },
    {
      "constant": true,
      "inputs": [],
      "name": "getTurnCount",
      "outputs": [
        {
          "name": "",
          "type": "int256"
        }
      ],
      "payable": false,
      "stateMutability": "view",
      "type": "function"
    },
    {
      "constant": false,
      "inputs": [],
      "name": "startGame",
      "outputs": [],
      "payable": true,
      "stateMutability": "payable",
      "type": "function"
    },
    {
      "constant": false,
      "inputs": [
        {
          "name": "guess",
          "type": "uint256"
        }
      ],
      "name": "acceptChallenge",
      "outputs": [],
      "payable": true,
      "stateMutability": "payable",
      "type": "function"
    },
    {
      "constant": false,
      "inputs": [
        {
          "name": "guess",
          "type": "uint256"
        },
        {
          "name": "result",
          "type": "uint256"
        }
      ],
      "name": "takeTurnsAttacking",
      "outputs": [],
      "payable": true,
      "stateMutability": "payable",
      "type": "function"
    },
    {
      "constant": true,
      "inputs": [],
      "name": "getP1LogOfGuesses",
      "outputs": [
        {
          "name": "",
          "type": "uint256[]"
        }
      ],
      "payable": false,
      "stateMutability": "view",
      "type": "function"
    },
    {
      "constant": true,
      "inputs": [],
      "name": "getP2LogOfGuesses",
      "outputs": [
        {
          "name": "",
          "type": "uint256[]"
        }
      ],
      "payable": false,
      "stateMutability": "view",
      "type": "function"
    },
    {
      "constant": true,
      "inputs": [],
      "name": "getP1Hits",
      "outputs": [
        {
          "name": "",
          "type": "uint256"
        }
      ],
      "payable": false,
      "stateMutability": "view",
      "type": "function"
    },
    {
      "constant": true,
      "inputs": [],
      "name": "getP2Hits",
      "outputs": [
        {
          "name": "",
          "type": "uint256"
        }
      ],
      "payable": false,
      "stateMutability": "view",
      "type": "function"
    },
    {
      "constant": false,
      "inputs": [],
      "name": "gameOver",
      "outputs": [],
      "payable": true,
      "stateMutability": "payable",
      "type": "function"
    },
    {
      "constant": false,
      "inputs": [],
      "name": "declareWinner",
      "outputs": [],
      "payable": true,
      "stateMutability": "payable",
      "type": "function"
    }
  ],
  "bytecode": "0x60806040526000601960006101000a81548160ff0219169083600481111561002357fe5b021790555042601a5534801561003857600080fd5b50336000806101000a81548173ffffffffffffffffffffffffffffffffffffffff021916908373ffffffffffffffffffffffffffffffffffffffff160217905550612066806100886000396000f3006080604052600436106101d8576000357c0100000000000000000000000000000000000000000000000000000000900463ffffffff168063081d5aa5146101da5780630c54000f1461021b5780630d94ab8c146102465780630fce20191461029d57806314034bd2146102c857806315133994146102d25780631b0fc106146102fd5780631f80f4e31461031d5780631f99d37c1461034857806327e235e314610389578063344a1c9d146103e057806334b2eda91461044c578063511bb65d146104a357806359a5f12d146104ce5780635d6450b6146105255780636d19bb93146105505780638538dfed1461057b5780638da5cb5b146105a557806393c6be49146105fc578063ae4ccdf314610641578063b250af261461066c578063b88a1dbb14610697578063bdb337d1146106dc578063c040e6b8146106e6578063c38a8afd1461071f578063ce1fbaea1461074a578063d30895e414610775578063d5ad7a8b146107cc578063d5c019a51461080d578063d65ab5f214610864578063d7c81b551461086e578063d995b36b14610899578063da5c3541146108da578063e12dd6ba14610905578063e19338b314610930578063e8e56a881461095b578063e9cd8222146109b2578063f71d96cb14610a1e575b005b3480156101e657600080fd5b5061020560048036038101908080359060200190929190505050610a8b565b6040518082815260200191505060405180910390f35b34801561022757600080fd5b50610230610aae565b6040518082815260200191505060405180910390f35b34801561025257600080fd5b5061025b610abb565b604051808273ffffffffffffffffffffffffffffffffffffffff1673ffffffffffffffffffffffffffffffffffffffff16815260200191505060405180910390f35b3480156102a957600080fd5b506102b2610ae1565b6040518082815260200191505060405180910390f35b6102d0610aee565b005b3480156102de57600080fd5b506102e7611134565b6040518082815260200191505060405180910390f35b61031b60048036038101908080359060200190929190505050611141565b005b34801561032957600080fd5b506103326112ca565b6040518082815260200191505060405180910390f35b34801561035457600080fd5b50610373600480360381019080803590602001909291905050506112d4565b6040518082815260200191505060405180910390f35b34801561039557600080fd5b506103ca600480360381019080803573ffffffffffffffffffffffffffffffffffffffff1690602001909291905050506112f7565b6040518082815260200191505060405180910390f35b3480156103ec57600080fd5b506103f561130f565b6040518080602001828103825283818151815260200191508051906020019060200280838360005b8381101561043857808201518184015260208101905061041d565b505050509050019250505060405180910390f35b34801561045857600080fd5b50610461611367565b604051808273ffffffffffffffffffffffffffffffffffffffff1673ffffffffffffffffffffffffffffffffffffffff16815260200191505060405180910390f35b3480156104af57600080fd5b506104b861138d565b6040518082815260200191505060405180910390f35b3480156104da57600080fd5b506104e3611393565b604051808273ffffffffffffffffffffffffffffffffffffffff1673ffffffffffffffffffffffffffffffffffffffff16815260200191505060405180910390f35b34801561053157600080fd5b5061053a6113b9565b6040518082815260200191505060405180910390f35b34801561055c57600080fd5b506105656113c6565b6040518082815260200191505060405180910390f35b6105a360048036038101908080359060200190929190803590602001909291905050506113cc565b005b3480156105b157600080fd5b506105ba611861565b604051808273ffffffffffffffffffffffffffffffffffffffff1673ffffffffffffffffffffffffffffffffffffffff16815260200191505060405180910390f35b34801561060857600080fd5b5061062760048036038101908080359060200190929190505050611886565b604051808215151515815260200191505060405180910390f35b34801561064d57600080fd5b506106566118a6565b6040518082815260200191505060405180910390f35b34801561067857600080fd5b506106816118ac565b6040518082815260200191505060405180910390f35b3480156106a357600080fd5b506106c2600480360381019080803590602001909291905050506118b2565b604051808215151515815260200191505060405180910390f35b6106e46118d2565b005b3480156106f257600080fd5b506106fb611bd6565b6040518082600481111561070b57fe5b60ff16815260200191505060405180910390f35b34801561072b57600080fd5b50610734611be9565b6040518082815260200191505060405180910390f35b34801561075657600080fd5b5061075f611bef565b6040518082815260200191505060405180910390f35b34801561078157600080fd5b5061078a611bf5565b604051808273ffffffffffffffffffffffffffffffffffffffff1673ffffffffffffffffffffffffffffffffffffffff16815260200191505060405180910390f35b3480156107d857600080fd5b506107f760048036038101908080359060200190929190505050611c1b565b6040518082815260200191505060405180910390f35b34801561081957600080fd5b50610822611c3e565b604051808273ffffffffffffffffffffffffffffffffffffffff1673ffffffffffffffffffffffffffffffffffffffff16815260200191505060405180910390f35b61086c611c64565b005b34801561087a57600080fd5b50610883611e48565b6040518082815260200191505060405180910390f35b3480156108a557600080fd5b506108c460048036038101908080359060200190929190505050611e4e565b6040518082815260200191505060405180910390f35b3480156108e657600080fd5b506108ef611e71565b6040518082815260200191505060405180910390f35b34801561091157600080fd5b5061091a611e7b565b6040518082815260200191505060405180910390f35b34801561093c57600080fd5b50610945611e99565b6040518082815260200191505060405180910390f35b34801561096757600080fd5b50610970611e9f565b604051808273ffffffffffffffffffffffffffffffffffffffff1673ffffffffffffffffffffffffffffffffffffffff16815260200191505060405180910390f35b3480156109be57600080fd5b506109c7611ec5565b6040518080602001828103825283818151815260200191508051906020019060200280838360005b83811015610a0a5780820151818401526020810190506109ef565b505050509050019250505060405180910390f35b348015610a2a57600080fd5b50610a4960048036038101908080359060200190929190505050611f1d565b604051808273ffffffffffffffffffffffffffffffffffffffff1673ffffffffffffffffffffffffffffffffffffffff16815260200191505060405180910390f35b600d81815481101515610a9a57fe5b906000526020600020016000915090505481565b6000600d80549050905090565b601360009054906101000a900473ffffffffffffffffffffffffffffffffffffffff1681565b6000600b80549050905090565b6004806004811115610afc57fe5b601960009054906101000a900460ff166004811115610b1757fe5b141515610b2357600080fd5b6000601360009054906101000a900473ffffffffffffffffffffffffffffffffffffffff1673ffffffffffffffffffffffffffffffffffffffff16148015610ba357506000601460009054906101000a900473ffffffffffffffffffffffffffffffffffffffff1673ffffffffffffffffffffffffffffffffffffffff16145b156111315760056009805490501415610d0a576008600460008060009054906101000a900473ffffffffffffffffffffffffffffffffffffffff1673ffffffffffffffffffffffffffffffffffffffff1673ffffffffffffffffffffffffffffffffffffffff16815260200190815260200160002060008282540392505081905550600660046000600260009054906101000a900473ffffffffffffffffffffffffffffffffffffffff1673ffffffffffffffffffffffffffffffffffffffff1673ffffffffffffffffffffffffffffffffffffffff16815260200190815260200160002060008282540192505081905550600260046000600360009054906101000a900473ffffffffffffffffffffffffffffffffffffffff1673ffffffffffffffffffffffffffffffffffffffff1673ffffffffffffffffffffffffffffffffffffffff16815260200190815260200160002060008282540192505081905550610e69565b6005600b805490501415610e68576008600460008060009054906101000a900473ffffffffffffffffffffffffffffffffffffffff1673ffffffffffffffffffffffffffffffffffffffff1673ffffffffffffffffffffffffffffffffffffffff16815260200190815260200160002060008282540392505081905550600660046000600360009054906101000a900473ffffffffffffffffffffffffffffffffffffffff1673ffffffffffffffffffffffffffffffffffffffff1673ffffffffffffffffffffffffffffffffffffffff16815260200190815260200160002060008282540192505081905550600260046000600260009054906101000a900473ffffffffffffffffffffffffffffffffffffffff1673ffffffffffffffffffffffffffffffffffffffff1673ffffffffffffffffffffffffffffffffffffffff168152602001908152602001600020600082825401925050819055505b5b6000601560009054906101000a900473ffffffffffffffffffffffffffffffffffffffff1673ffffffffffffffffffffffffffffffffffffffff16141515610f8b576008600460008060009054906101000a900473ffffffffffffffffffffffffffffffffffffffff1673ffffffffffffffffffffffffffffffffffffffff1673ffffffffffffffffffffffffffffffffffffffff16815260200190815260200160002060008282540392505081905550600860046000600360009054906101000a900473ffffffffffffffffffffffffffffffffffffffff1673ffffffffffffffffffffffffffffffffffffffff1673ffffffffffffffffffffffffffffffffffffffff168152602001908152602001600020600082825401925050819055505b6000601660009054906101000a900473ffffffffffffffffffffffffffffffffffffffff1673ffffffffffffffffffffffffffffffffffffffff161415156110ad576008600460008060009054906101000a900473ffffffffffffffffffffffffffffffffffffffff1673ffffffffffffffffffffffffffffffffffffffff1673ffffffffffffffffffffffffffffffffffffffff16815260200190815260200160002060008282540392505081905550600860046000600360009054906101000a900473ffffffffffffffffffffffffffffffffffffffff1673ffffffffffffffffffffffffffffffffffffffff1673ffffffffffffffffffffffffffffffffffffffff168152602001908152602001600020600082825401925050819055505b6000601360009054906101000a900473ffffffffffffffffffffffffffffffffffffffff1673ffffffffffffffffffffffffffffffffffffffff161415801561112f57506000601460009054906101000a900473ffffffffffffffffffffffffffffffffffffffff1673ffffffffffffffffffffffffffffffffffffffff1614155b505b50565b6000600980549050905090565b600180600481111561114f57fe5b601960009054906101000a900460ff16600481111561116a57fe5b14151561117657600080fd5b600160185414156112be5733600360006101000a81548173ffffffffffffffffffffffffffffffffffffffff021916908373ffffffffffffffffffffffffffffffffffffffff160217905550674563918244f40000341415156111d857600080fd5b34600460008060009054906101000a900473ffffffffffffffffffffffffffffffffffffffff1673ffffffffffffffffffffffffffffffffffffffff1673ffffffffffffffffffffffffffffffffffffffff16815260200190815260200160002060008282540192505081905550606060405190810160405280601560ff168152602001601660ff168152602001601760ff16815250600690600361127e929190611fc3565b50600f8290806001815401808255809150509060018203906000526020600020016000909192909190915055506018600081548092919060010191905055505b6112c6611f5b565b5050565b6000601154905090565b6009818154811015156112e357fe5b906000526020600020016000915090505481565b60046020528060005260406000206000915090505481565b6060600f80548060200260200160405190810160405280929190818152602001828054801561135d57602002820191906000526020600020905b815481526020019060010190808311611349575b5050505050905090565b601560009054906101000a900473ffffffffffffffffffffffffffffffffffffffff1681565b60125481565b600360009054906101000a900473ffffffffffffffffffffffffffffffffffffffff1681565b6000600f80549050905090565b60115481565b600260048111156113d957fe5b601960009054906101000a900460ff1660048111156113f457fe5b1480156114045750607842014210155b1561141257611411611f5b565b5b600280600481111561142057fe5b601960009054906101000a900460ff16600481111561143b57fe5b14151561144757600080fd5b60016018541415801561146857506001600260185481151561146557fe5b07145b156115055761147683611fa8565b151561148157600080fd5b600f83908060018154018082558091505090600182039060005260206000200160009091929091909150555033600360006101000a81548173ffffffffffffffffffffffffffffffffffffffff021916908373ffffffffffffffffffffffffffffffffffffffff1602179055506018600081548092919060010191905055506115b1565b6000600260185481151561151557fe5b0714156115b05761152583611fa8565b151561153057600080fd5b600d83908060018154018082558091505090600182039060005260206000200160009091929091909150555033600260006101000a81548173ffffffffffffffffffffffffffffffffffffffff021916908373ffffffffffffffffffffffffffffffffffffffff1602179055506018600081548092919060010191905055505b5b6115b9610aae565b506115c26113b9565b506001601854141580156115e45750600160026018548115156115e157fe5b07145b156117095760018214156116a257600d60016115fe610aae565b0381548110151561160b57fe5b9060005260206000200154600e819055506009600e549080600181540180825580915050906001820390600052602060002001600090919290919091505550601160008154809291906001019190505550600560115414156116a1577fbd760552189f6fcfe36e948635917aaddec6051d7eac878d812037348b4697f26007546040518082815260200191505060405180910390a15b5b600282141561170457600d60016116b7610aae565b038154811015156116c457fe5b9060005260206000200154600e819055506001600a6000600e54815260200190815260200160002060006101000a81548160ff0219169083151502179055505b61183d565b6000600260185481151561171957fe5b07141561183c5760018214156117d957600f60016117356113b9565b0381548110151561174257fe5b9060005260206000200154601081905550600b600e549080600181540180825580915050906001820390600052602060002001600090919290919091505550601260008154809291906001019190505550600560125414156117d8577fbd760552189f6fcfe36e948635917aaddec6051d7eac878d812037348b4697f26007546040518082815260200191505060405180910390a15b5b600282141561183b57600f60016117ee6113b9565b038154811015156117fb57fe5b90600052602060002001546010819055506001600c6000601054815260200190815260200160002060006101000a81548160ff0219169083151502179055505b5b5b6078601a54014210151561185457611853611f5b565b5b61185c611f5b565b505050565b6000809054906101000a900473ffffffffffffffffffffffffffffffffffffffff1681565b600c6020528060005260406000206000915054906101000a900460ff1681565b60185481565b601a5481565b600a6020528060005260406000206000915054906101000a900460ff1681565b600060038060048111156118e257fe5b601960009054906101000a900460ff1660048111156118fd57fe5b14151561190957600080fd5b600560098054905014156119dc5760009150600091505b600580549050600010156119d7576001600c600084815260200190815260200160002060006101000a81548160ff0219169083151502179055156119ca57600260009054906101000a900473ffffffffffffffffffffffffffffffffffffffff16601360006101000a81548173ffffffffffffffffffffffffffffffffffffffff021916908373ffffffffffffffffffffffffffffffffffffffff16021790555081806001019250505b8180600101925050611920565b611bca565b6005600b805490501415611aab57600091505b60068054905060001015611aa6576001600a600084815260200190815260200160002060006101000a81548160ff021916908315150217905515611a9957600360009054906101000a900473ffffffffffffffffffffffffffffffffffffffff16601460006101000a81548173ffffffffffffffffffffffffffffffffffffffff021916908373ffffffffffffffffffffffffffffffffffffffff16021790555081806001019250505b81806001019250506119ef565b611bc9565b60006002601854811515611abb57fe5b07148015611ace57506005600980549050105b15611b3b57600260009054906101000a900473ffffffffffffffffffffffffffffffffffffffff16601560006101000a81548173ffffffffffffffffffffffffffffffffffffffff021916908373ffffffffffffffffffffffffffffffffffffffff160217905550611bc8565b60016002601854811515611b4b57fe5b07148015611b5e57506005600b80549050105b15611bc757600360009054906101000a900473ffffffffffffffffffffffffffffffffffffffff16601660006101000a81548173ffffffffffffffffffffffffffffffffffffffff021916908373ffffffffffffffffffffffffffffffffffffffff1602179055505b5b5b5b611bd2611f5b565b5050565b601960009054906101000a900460ff1681565b60085481565b600e5481565b600260009054906101000a900473ffffffffffffffffffffffffffffffffffffffff1681565b600b81815481101515611c2a57fe5b906000526020600020016000915090505481565b601660009054906101000a900473ffffffffffffffffffffffffffffffffffffffff1681565b6000806004811115611c7257fe5b601960009054906101000a900460ff166004811115611c8d57fe5b141515611c9957600080fd5b60006018541415611e3d5733600260006101000a81548173ffffffffffffffffffffffffffffffffffffffff021916908373ffffffffffffffffffffffffffffffffffffffff1602179055506001600260009054906101000a900473ffffffffffffffffffffffffffffffffffffffff1690806001815401808255809150509060018203906000526020600020016000909192909190916101000a81548173ffffffffffffffffffffffffffffffffffffffff021916908373ffffffffffffffffffffffffffffffffffffffff16021790555050674563918244f4000034141515611d8357600080fd5b606060405190810160405280600160ff168152602001603760ff168152602001603860ff168152506005906003611dbb929190611fc3565b5034600460008060009054906101000a900473ffffffffffffffffffffffffffffffffffffffff1673ffffffffffffffffffffffffffffffffffffffff1673ffffffffffffffffffffffffffffffffffffffff168152602001908152602001600020600082825401925050819055506018600081548092919060010191905055505b611e45611f5b565b50565b60075481565b600f81815481101515611e5d57fe5b906000526020600020016000915090505481565b6000601254905090565b6000806018541415611e905760009050611e96565b60185490505b90565b60105481565b601460009054906101000a900473ffffffffffffffffffffffffffffffffffffffff1681565b6060600d805480602002602001604051908101604052809291908181526020018280548015611f1357602002820191906000526020600020905b815481526020019060010190808311611eff575b5050505050905090565b600181815481101515611f2c57fe5b906000526020600020016000915054906101000a900473ffffffffffffffffffffffffffffffffffffffff1681565b6001601960009054906101000a900460ff166004811115611f7857fe5b016004811115611f8457fe5b601960006101000a81548160ff02191690836004811115611fa157fe5b0217905550565b600060018210158015611fbc575060648211155b9050919050565b828054828255906000526020600020908101928215612004579160200282015b82811115612003578251829060ff16905591602001919060010190611fe3565b5b5090506120119190612015565b5090565b61203791905b8082111561203357600081600090555060010161201b565b5090565b905600a165627a7a72305820749881a22cefafe47509c1d0c61b2c3300a569b0287e1ed4599ee16cf56deff40029",
  "source": "pragma solidity ^0.4.24;\n\n\n// contract BattleshipFactory {\n//     address[] public deployedBattleships;\n\n//     function createBattleship() public { \n        // address newBattleship = new Battleship();\n        // deployedBattleships.push(newBattleship);\n        // Battleship battleship = new Battleship();\n//     }\n\n//     function getDeployedBattleships() public view returns (address[]) {\n//         return deployedBattleships;\n//     }\n// }\n\ncontract Battleship {\n\n    // ================================================================================\n    // GLOBAL VARIABLES\n    // ================================================================================\n    address public owner;\n    address[] public players;\n    address public player1;\n    address public player2;\n    mapping (address => uint) public balances;\n\n    int[] internal p1Board;\n    int[] internal p2Board;\n\n    uint public gameId;\n    uint public minimumBet;\n\n    uint[] public p1Hits;\n    mapping(uint => bool) public p1Misses;\n    \n    uint[] public p2Hits;\n    mapping(uint => bool) public p2Misses;\n    \n    uint[] public p1LogOfGuesses;\n    uint public p1Position;\n\n    uint[] public p2LogOfGuesses;\n    uint public p2Position;\n    \n    uint public p1SuccessfulGuesses;\n    uint public p2SuccessfulGuesses;\n\n    address public badActor1;\n    address public badActor2;\n    \n    address public forfeit1;\n    address public forfeit2;\n\n    mapping(uint => Turn) turns;\n    int public turnCount;      // decided to increment turnCount rather than\n                                // use `Turns[] public turns;` with State, i.e.,\n                                // create a State `nextTurn` and then\n                                // step through sequential turns with (a) functions,\n                                // e.g., `function turnOne() {}`, `function\n                                // turnTwo() {}` or (b) a for loop - whose\n                                // gas cost increases linearly with the number\n                                // of iterations\n    \n    struct Turn {\n        uint gameId;\n        uint guess;\n        uint result;\n        Stages stage;\n        mapping(uint => bool) p1Hits;\n        mapping(uint => bool) p1Misses;\n        mapping(uint => bool) p2Hits;\n        mapping(uint => bool) p2Misses;\n    }\n    \n    // ================================================================================\n    // MODIFIERS\n    // ================================================================================\n\n    modifier restricted() {\n        require(msg.sender == owner);\n        _;\n    }\n\n    modifier onlyOwner() {\n        assert(owner == msg.sender);\n        _;\n    }\n\n    // ================================================================================\n    // STATE \n    // ================================================================================\n    enum Stages { \n        startOfGame,           // @dev start game\n        acceptTheChallenge,    // @dev begin play\n        takeYourTurnAttacking, // @dev take turns attacking\n        gameIsOver,            // @dev end of play\n        declareTheWinner       // @dev declare winner and payout\n    }\n    \n    // This is the current stage.\n    Stages public stage = Stages.startOfGame;\n\n    uint public startTurn = now;\n\n    modifier atStage(Stages _stage) {\n        require(stage == _stage);\n        _;\n    }\n    \n    // @param This modifier goes to the next stage after the function is done.\n    modifier transitionNext()\n    {\n        _;\n        nextStage();\n    }\n    \n    function nextStage() internal {\n        stage = Stages(uint(stage) + 1);\n    }\n   \n    modifier timedTransitions() {\n        if (stage == Stages.takeYourTurnAttacking && now >= now + 2 minutes) {\n            nextStage();\n        }\n        // The other stages transition by transaction\n        _;\n    }\n\n    // ================================================================================\n    // EVENTS\n    // ================================================================================\n    event StartOfGame(uint gameId);\n    event AcceptTheChallenge(uint gameId);\n    event TakeYourTurnAttacking(uint gameId);\n    event GameIsOver(uint gameId);\n    event DeclareTheWinner(uint gameId);\n    \n    // ================================================================================\n    // GAME \n    // ================================================================================\n\n    // @dev constructor function. Sets contract owner\n    constructor() public {\n        owner = msg.sender;\n        // minimumBet = minimum;\n        // balances[owner] = 0;\n        // turnCount = 0;\n    }\n    \n    function isValidNumber(uint _guess) private pure returns (bool) {\n        return _guess >= 1 && _guess <= 100;\n    }\n    \n    function getLengthP1() public constant returns(uint length) {\n        return p1LogOfGuesses.length;\n    }\n    \n    function getLengthP2() public constant returns(uint length) {\n        return p2LogOfGuesses.length;\n    }\n    \n    function getHitsP1() public constant returns(uint length) {\n        return p1Hits.length;\n    }\n    \n    function getHitsP2() public constant returns(uint length) {\n        return p2Hits.length;\n    }\n\n    function getTurnCount() public constant returns(int){\n        if (int(turnCount) == 0) {\n            return 0;\n        } else {\n            return int(turnCount);\n        }\n    } \n    \n    // ================================================================================\n    // ACTION:  player 1 initiates a game by submitting the entry fee\n    // NOTE:    turncount is initialized to 0.  This is the first turn\n    // ================================================================================\n    \n    // player 1 initiates a game\n    // function startGame(address creator)             // see BattleshipFactory\n    function startGame()\n        public\n        payable\n        atStage(Stages.startOfGame)\n        transitionNext\n    {\n        if (turnCount == 0) {\n            // pay entry fee to owner aka casino / house\n            // player1 = creator;                   // see BattleshipFactory\n            player1 = msg.sender;\n            players.push(player1);\n            if (msg.value != 5 ether) revert();  // pay entry fee to owner\n            // require(msg.value > minimumBet);  // variable betting not enabled\n            // submit board\n            p1Board = [1,55,56];                // TEST ONLY - REMOVE\n            balances[owner] += msg.value;\n            turnCount++;                        // or turns.push(newTurn);\n        } \n    }\n    \n    // ================================================================================\n    // ACTION:  player 2 accepts the challenge by submitting their bet, and\n    //          takes the first shot by submitting a guess (aka board position)\n    // NOTE:    this is turn 2, so\n    //              player 1 is the 'odd' player [ modulo = 1 ]\n    //              player 2 is the 'even' player [ modulo = 0 ]\n    // ================================================================================\n    \n    // player 2 accepts the challenge, submits their bet, and\n    // takes the first shot by submitting a guess aka board position\n    function acceptChallenge(uint guess) \n        public\n        payable\n        atStage(Stages.acceptTheChallenge)\n        transitionNext\n    {\n        // Player 2 accepts the challenge / pays the entry fee \n        // and attacks player 1 (during turnCount 2), so \n        // player 1 is the 'odd' player [ modulo = 1 ]\n        // player 2 is the 'even' player [ modulo = 0 ]\n        \n        if (turnCount == 1) {\n            player2 = msg.sender;\n            if (msg.value != 5 ether) revert();\n            balances[owner] += msg.value;\n            // submit board\n            p2Board = [21,22,23];\n            // initiate an attack with a guess aka position\n            // save a 'log' of attacks / positions \n            p2LogOfGuesses.push(guess);\n            turnCount++;\n        }\n    }\n    \n    // ================================================================================\n    // ACTION:  send your guess to your opponent and send the result of their try to them\n    // NOTE:    Since their opponents board is 'hidden', only the player receiving \n    //          the hit can state whether a hit or miss occurred\n    //\n    //          hit = 1; miss = 2\n    //\n    //          IMPORTANTLY, this is designed to catch a cheater.  We assume players\n    //          will honestly return the result of an attack, i.e., correctly send a hit\n    //          or miss.  A dishonest player might mark a hit as a miss.  When their \n    //          board is revealed, we'll compare the shots marked misses against the\n    //          positions they submitted.\n    // ================================================================================\n    \n    // send your guess to opponent and\n    // send result of opponent's try to them\n    // hit = 1\n    // miss = 2\n\n    function takeTurnsAttacking(uint guess, uint result)\n        public \n        payable\n        timedTransitions\n        atStage(Stages.takeYourTurnAttacking)\n        transitionNext\n    {   \n        \n        if ((turnCount != 1) && (turnCount % 2 == 1)) {     // player 2\n            startTurn;                               // to catch forfeits    \n            require(isValidNumber(guess));\n            // make a new guess aka attack / position\n            // and save your guess\n            p2LogOfGuesses.push(guess);\n            // send P1 the result of their attack\n            player2 = msg.sender;\n            turnCount++;\n            \n        } else if (turnCount % 2 == 0) {  // player 1\n            startTurn;                               // to catch forfeits   \n            require(isValidNumber(guess));\n            // make a new guess aka attack / position\n            // and save your guess\n            p1LogOfGuesses.push(guess);\n            // send P2 the result of their attack\n            player1 = msg.sender;\n            turnCount++;\n            \n        // Since P1 knows if P2's guess was a hit / miss, when sending \n        // the 'result', P1 logs the hit or miss using the\n        // position logged by P2 when sending their guess\n        }\n        \n        getLengthP1();\n        getLengthP2();\n        \n        if ((turnCount != 1) && (turnCount % 2 == 1)) {         // player 2                              // to catch forfeits    \n            if (result == 1) { \n                p1Position = p1LogOfGuesses[getLengthP1()-1];\n                p1Hits.push(p1Position);\n                p1SuccessfulGuesses++;\n                if (p1SuccessfulGuesses == 5) {\n                    // Turn storage turn = turn;\n                    // turn.gameOver = true;\n                    emit GameIsOver(gameId);\n                    // (player2, \"You win!\")\n                }\n            }\n            if (result == 2) {\n                p1Position = p1LogOfGuesses[getLengthP1()-1];\n                p1Misses[p1Position] = true;\n            }\n        } else if (turnCount % 2 == 0) {                        // player 1\n            if (result == 1) {\n                p2Position = p2LogOfGuesses[getLengthP2()-1];\n                p2Hits.push(p1Position);\n                p2SuccessfulGuesses++;\n                if (p2SuccessfulGuesses == 5) {\n                    // turn.gameOver = true;\n                    emit GameIsOver(gameId);\n                    // (player1, \"You win!\")\n                }\n            }\n            if (result == 2) {\n                p2Position = p2LogOfGuesses[getLengthP2()-1];\n                p2Misses[p2Position] = true;\n            }\n        } if (now >= startTurn + 2 minutes) {\n            nextStage();\n        } \n    }\n    \n    function getP1LogOfGuesses() public view returns(uint[]) {\n        return p1LogOfGuesses;\n    }\n    \n    function getP2LogOfGuesses() public view returns(uint[]) {\n        return p2LogOfGuesses;\n    }\n    \n    function getP1Hits() public view returns(uint) {\n        return p1SuccessfulGuesses;\n    }\n    \n    function getP2Hits() public view returns(uint) {\n        return p2SuccessfulGuesses;\n    }\n    \n    // ================================================================================\n    // ACTION:  game ends when:\n    //          1. a player has 17 hits, i.e., sinks all of their opponent's ships\n    //          2. a player walks away from the game, i.e., does not respond to an\n    //             attack in the alloted 2 minutes\n    // NOTE:    Payout:\n    //          1. Cheating: \n    //              (a) if one player cheats, they lose their funds. \n    //                  - owner gets to keep 0.2 ether, \n    //                  - winning player gets 0.8 ether\n    //              (b) if both players cheat, the owner keeps the entire pot\n    //          2. Sore loser:\n    //              We create an incentive to complete the game:\n    //               (a) player abandoning game rather than announcing win gets 0\n    //               (b) owner gets to keep 0.2 ether, \n    //               (c) winning player gets 0.8 ether\n    //          3. Fair win:\n    //              (a) owner gets to keep 0.2 ether,\n    //              (b) losing player gets 0.2 ether,\n    //              (c) winning player gets 0.6 ether.\n    // ================================================================================              \n    \n    function gameOver() \n        public \n        payable\n        atStage(Stages.gameIsOver)\n        transitionNext\n    {                                     // reveal boards\n        if (p1Hits.length == 5) {\n            // reveal of P1's board\n            // compare to misses P1 reported to P2\n            uint i = 0;\n            for (i = 0; 0 < p1Board.length; i++) {\n                if (p2Misses[i] = true) {\n                    badActor1 = player1;    // p1 cheated by calling a hit a miss\n                    i++;\n                } \n            }\n        } else if (p2Hits.length == 5) {   \n            // reveal of P2's board\n            // compare to misses P2 reported to P1\n\n            for (i = 0; 0 < p2Board.length; i++) {\n                if (p1Misses[i] = true) {\n                    badActor2 = player2;    // p2 cheated by calling a hit a miss\n                    i++;\n                } \n            }     \n             \n        // forfeit if do not respond in 2 minutes\n        // implies (a) still prior turn / opponent's turn because turnCount hasn't incremented \n        // implies winning player will have less hits than the number required to win\n        } else if ((turnCount % 2 == 0) && (p1Hits.length < 5)) {\n                forfeit1 = player1;\n            } else if ((turnCount % 2 == 1) && (p2Hits.length < 5)) {\n                forfeit2 = player2;\n            }\n        } \n    \n    function declareWinner() \n        public \n        payable\n        atStage(Stages.declareTheWinner)\n    {   \n        if ((badActor1 == 0) && (badActor2 == 0)) {  // can test for null address with 0\n            if (p1Hits.length == 5) {   // for test purposes 5 rather than 17\n                                        // p2 said \"You win!\"\n                                        // so p2 earns completion incentive\n                balances[owner] -= 8;\n                balances[player1] += 6;\n                balances[player2] += 2;\n            \n            } else if (p2Hits.length == 5) { // for test purposes 5 rather than 17\n                                             // p1 said \"You win!\"\n                                             // so p1 earns completion incentive\n                balances[owner] -= 8;\n                balances[player2] += 6;\n                balances[player1] += 2;\n\n        } if (forfeit1 != 0) {    // p1 forteit\n            balances[owner] -= 8;\n            balances[player2] += 8;\n        } if (forfeit2 != 0) {    // p2 forfeit\n            balances[owner] -= 8;\n            balances[player2] += 8;\n        } if ((badActor1 != 0) && (badActor2 != 0)) {    // do nothing,\n        }                                          // owner keeps the pot\n        }\n    \n    }\n\n    // @dev - fallback function - allows contract to accept ETH \n    function () payable {\n\n    }\n}",
  "sourcePath": "/Users/dougharman/Battleship/contracts/Battleship.sol",
  "compiler": {
    "name": "solc",
    "version": "0.4.24+commit.e67f0147.Emscripten.clang"
  },
  "schemaVersion": "2.0.1",
  "updatedAt": "2018-08-20T21:47:54.087Z"
}