{
  "contractName": "BattleshipFactory",
  "abi": [
    {
      "constant": true,
      "inputs": [
        {
          "name": "",
          "type": "uint256"
        }
      ],
      "name": "deployedBattleships",
      "outputs": [
        {
          "name": "",
          "type": "address"
        }
      ],
      "payable": false,
      "stateMutability": "view",
      "type": "function"
    },
    {
      "constant": false,
      "inputs": [],
      "name": "createBattleship",
      "outputs": [],
      "payable": false,
      "stateMutability": "nonpayable",
      "type": "function"
    },
    {
      "constant": true,
      "inputs": [],
      "name": "getDeployedBattleships",
      "outputs": [
        {
          "name": "",
          "type": "address[]"
        }
      ],
      "payable": false,
      "stateMutability": "view",
      "type": "function"
    }
  ],
  "bytecode": "0x608060405234801561001057600080fd5b50612310806100206000396000f300608060405260043610610057576000357c0100000000000000000000000000000000000000000000000000000000900463ffffffff16806308ba9d201461005c5780636b520dbf14610073578063ddebc730146100df575b600080fd5b34801561006857600080fd5b5061007161014c565b005b34801561007f57600080fd5b50610088610178565b6040518080602001828103825283818151815260200191508051906020019060200280838360005b838110156100cb5780820151818401526020810190506100b0565b505050509050019250505060405180910390f35b3480156100eb57600080fd5b5061010a60048036038101908080359060200190929190505050610206565b604051808273ffffffffffffffffffffffffffffffffffffffff1673ffffffffffffffffffffffffffffffffffffffff16815260200191505060405180910390f35b6000610156610244565b604051809103906000f080158015610172573d6000803e3d6000fd5b50905050565b606060008054806020026020016040519081016040528092919081815260200182805480156101fc57602002820191906000526020600020905b8160009054906101000a900473ffffffffffffffffffffffffffffffffffffffff1673ffffffffffffffffffffffffffffffffffffffff16815260200190600101908083116101b2575b5050505050905090565b60008181548110151561021557fe5b906000526020600020016000915054906101000a900473ffffffffffffffffffffffffffffffffffffffff1681565b6040516120908061025583390190560060806040526000601960006101000a81548160ff0219169083600481111561002357fe5b021790555042601a55336000806101000a81548173ffffffffffffffffffffffffffffffffffffffff021916908373ffffffffffffffffffffffffffffffffffffffff1602179055506120158061007b6000396000f3006080604052600436106101cd576000357c0100000000000000000000000000000000000000000000000000000000900463ffffffff168063081d5aa5146101d25780630c54000f146102135780630d94ab8c1461023e5780630fce20191461029557806314034bd2146102c057806315133994146102ca5780631b0fc106146102f55780631f80f4e3146103155780631f99d37c1461034057806327e235e314610381578063344a1c9d146103d857806334b2eda914610444578063511bb65d1461049b57806359a5f12d146104c65780635d6450b61461051d5780636d19bb93146105485780638538dfed146105735780638da5cb5b1461059d57806393c6be49146105f4578063ae4ccdf314610639578063b250af2614610664578063b88a1dbb1461068f578063bdb337d1146106d4578063c040e6b8146106de578063c38a8afd14610717578063ce1fbaea14610742578063d30895e41461076d578063d5ad7a8b146107c4578063d5c019a514610805578063d65ab5f21461085c578063d7c81b5514610866578063d995b36b14610891578063da5c3541146108d2578063e19338b3146108fd578063e8e56a8814610928578063e9cd82221461097f578063f71d96cb146109eb575b600080fd5b3480156101de57600080fd5b506101fd60048036038101908080359060200190929190505050610a58565b6040518082815260200191505060405180910390f35b34801561021f57600080fd5b50610228610a7b565b6040518082815260200191505060405180910390f35b34801561024a57600080fd5b50610253610a88565b604051808273ffffffffffffffffffffffffffffffffffffffff1673ffffffffffffffffffffffffffffffffffffffff16815260200191505060405180910390f35b3480156102a157600080fd5b506102aa610aae565b6040518082815260200191505060405180910390f35b6102c8610abb565b005b3480156102d657600080fd5b506102df611101565b6040518082815260200191505060405180910390f35b6103136004803603810190808035906020019092919050505061110e565b005b34801561032157600080fd5b5061032a611297565b6040518082815260200191505060405180910390f35b34801561034c57600080fd5b5061036b600480360381019080803590602001909291905050506112a1565b6040518082815260200191505060405180910390f35b34801561038d57600080fd5b506103c2600480360381019080803573ffffffffffffffffffffffffffffffffffffffff1690602001909291905050506112c4565b6040518082815260200191505060405180910390f35b3480156103e457600080fd5b506103ed6112dc565b6040518080602001828103825283818151815260200191508051906020019060200280838360005b83811015610430578082015181840152602081019050610415565b505050509050019250505060405180910390f35b34801561045057600080fd5b50610459611334565b604051808273ffffffffffffffffffffffffffffffffffffffff1673ffffffffffffffffffffffffffffffffffffffff16815260200191505060405180910390f35b3480156104a757600080fd5b506104b061135a565b6040518082815260200191505060405180910390f35b3480156104d257600080fd5b506104db611360565b604051808273ffffffffffffffffffffffffffffffffffffffff1673ffffffffffffffffffffffffffffffffffffffff16815260200191505060405180910390f35b34801561052957600080fd5b50610532611386565b6040518082815260200191505060405180910390f35b34801561055457600080fd5b5061055d611393565b6040518082815260200191505060405180910390f35b61059b6004803603810190808035906020019092919080359060200190929190505050611399565b005b3480156105a957600080fd5b506105b261182e565b604051808273ffffffffffffffffffffffffffffffffffffffff1673ffffffffffffffffffffffffffffffffffffffff16815260200191505060405180910390f35b34801561060057600080fd5b5061061f60048036038101908080359060200190929190505050611853565b604051808215151515815260200191505060405180910390f35b34801561064557600080fd5b5061064e611873565b6040518082815260200191505060405180910390f35b34801561067057600080fd5b50610679611879565b6040518082815260200191505060405180910390f35b34801561069b57600080fd5b506106ba6004803603810190808035906020019092919050505061187f565b604051808215151515815260200191505060405180910390f35b6106dc61189f565b005b3480156106ea57600080fd5b506106f3611ba3565b6040518082600481111561070357fe5b60ff16815260200191505060405180910390f35b34801561072357600080fd5b5061072c611bb6565b6040518082815260200191505060405180910390f35b34801561074e57600080fd5b50610757611bbc565b6040518082815260200191505060405180910390f35b34801561077957600080fd5b50610782611bc2565b604051808273ffffffffffffffffffffffffffffffffffffffff1673ffffffffffffffffffffffffffffffffffffffff16815260200191505060405180910390f35b3480156107d057600080fd5b506107ef60048036038101908080359060200190929190505050611be8565b6040518082815260200191505060405180910390f35b34801561081157600080fd5b5061081a611c0b565b604051808273ffffffffffffffffffffffffffffffffffffffff1673ffffffffffffffffffffffffffffffffffffffff16815260200191505060405180910390f35b610864611c31565b005b34801561087257600080fd5b5061087b611e15565b6040518082815260200191505060405180910390f35b34801561089d57600080fd5b506108bc60048036038101908080359060200190929190505050611e1b565b6040518082815260200191505060405180910390f35b3480156108de57600080fd5b506108e7611e3e565b6040518082815260200191505060405180910390f35b34801561090957600080fd5b50610912611e48565b6040518082815260200191505060405180910390f35b34801561093457600080fd5b5061093d611e4e565b604051808273ffffffffffffffffffffffffffffffffffffffff1673ffffffffffffffffffffffffffffffffffffffff16815260200191505060405180910390f35b34801561098b57600080fd5b50610994611e74565b6040518080602001828103825283818151815260200191508051906020019060200280838360005b838110156109d75780820151818401526020810190506109bc565b505050509050019250505060405180910390f35b3480156109f757600080fd5b50610a1660048036038101908080359060200190929190505050611ecc565b604051808273ffffffffffffffffffffffffffffffffffffffff1673ffffffffffffffffffffffffffffffffffffffff16815260200191505060405180910390f35b600d81815481101515610a6757fe5b906000526020600020016000915090505481565b6000600d80549050905090565b601360009054906101000a900473ffffffffffffffffffffffffffffffffffffffff1681565b6000600b80549050905090565b6004806004811115610ac957fe5b601960009054906101000a900460ff166004811115610ae457fe5b141515610af057600080fd5b6000601360009054906101000a900473ffffffffffffffffffffffffffffffffffffffff1673ffffffffffffffffffffffffffffffffffffffff16148015610b7057506000601460009054906101000a900473ffffffffffffffffffffffffffffffffffffffff1673ffffffffffffffffffffffffffffffffffffffff16145b156110fe5760056009805490501415610cd7576008600460008060009054906101000a900473ffffffffffffffffffffffffffffffffffffffff1673ffffffffffffffffffffffffffffffffffffffff1673ffffffffffffffffffffffffffffffffffffffff16815260200190815260200160002060008282540392505081905550600660046000600260009054906101000a900473ffffffffffffffffffffffffffffffffffffffff1673ffffffffffffffffffffffffffffffffffffffff1673ffffffffffffffffffffffffffffffffffffffff16815260200190815260200160002060008282540192505081905550600260046000600360009054906101000a900473ffffffffffffffffffffffffffffffffffffffff1673ffffffffffffffffffffffffffffffffffffffff1673ffffffffffffffffffffffffffffffffffffffff16815260200190815260200160002060008282540192505081905550610e36565b6005600b805490501415610e35576008600460008060009054906101000a900473ffffffffffffffffffffffffffffffffffffffff1673ffffffffffffffffffffffffffffffffffffffff1673ffffffffffffffffffffffffffffffffffffffff16815260200190815260200160002060008282540392505081905550600660046000600360009054906101000a900473ffffffffffffffffffffffffffffffffffffffff1673ffffffffffffffffffffffffffffffffffffffff1673ffffffffffffffffffffffffffffffffffffffff16815260200190815260200160002060008282540192505081905550600260046000600260009054906101000a900473ffffffffffffffffffffffffffffffffffffffff1673ffffffffffffffffffffffffffffffffffffffff1673ffffffffffffffffffffffffffffffffffffffff168152602001908152602001600020600082825401925050819055505b5b6000601560009054906101000a900473ffffffffffffffffffffffffffffffffffffffff1673ffffffffffffffffffffffffffffffffffffffff16141515610f58576008600460008060009054906101000a900473ffffffffffffffffffffffffffffffffffffffff1673ffffffffffffffffffffffffffffffffffffffff1673ffffffffffffffffffffffffffffffffffffffff16815260200190815260200160002060008282540392505081905550600860046000600360009054906101000a900473ffffffffffffffffffffffffffffffffffffffff1673ffffffffffffffffffffffffffffffffffffffff1673ffffffffffffffffffffffffffffffffffffffff168152602001908152602001600020600082825401925050819055505b6000601660009054906101000a900473ffffffffffffffffffffffffffffffffffffffff1673ffffffffffffffffffffffffffffffffffffffff1614151561107a576008600460008060009054906101000a900473ffffffffffffffffffffffffffffffffffffffff1673ffffffffffffffffffffffffffffffffffffffff1673ffffffffffffffffffffffffffffffffffffffff16815260200190815260200160002060008282540392505081905550600860046000600360009054906101000a900473ffffffffffffffffffffffffffffffffffffffff1673ffffffffffffffffffffffffffffffffffffffff1673ffffffffffffffffffffffffffffffffffffffff168152602001908152602001600020600082825401925050819055505b6000601360009054906101000a900473ffffffffffffffffffffffffffffffffffffffff1673ffffffffffffffffffffffffffffffffffffffff16141580156110fc57506000601460009054906101000a900473ffffffffffffffffffffffffffffffffffffffff1673ffffffffffffffffffffffffffffffffffffffff1614155b505b50565b6000600980549050905090565b600180600481111561111c57fe5b601960009054906101000a900460ff16600481111561113757fe5b14151561114357600080fd5b6001601854141561128b5733600360006101000a81548173ffffffffffffffffffffffffffffffffffffffff021916908373ffffffffffffffffffffffffffffffffffffffff160217905550674563918244f40000341415156111a557600080fd5b34600460008060009054906101000a900473ffffffffffffffffffffffffffffffffffffffff1673ffffffffffffffffffffffffffffffffffffffff1673ffffffffffffffffffffffffffffffffffffffff16815260200190815260200160002060008282540192505081905550606060405190810160405280601560ff168152602001601660ff168152602001601760ff16815250600690600361124b929190611f72565b50600f8290806001815401808255809150509060018203906000526020600020016000909192909190915055506018600081548092919060010191905055505b611293611f0a565b5050565b6000601154905090565b6009818154811015156112b057fe5b906000526020600020016000915090505481565b60046020528060005260406000206000915090505481565b6060600f80548060200260200160405190810160405280929190818152602001828054801561132a57602002820191906000526020600020905b815481526020019060010190808311611316575b5050505050905090565b601560009054906101000a900473ffffffffffffffffffffffffffffffffffffffff1681565b60125481565b600360009054906101000a900473ffffffffffffffffffffffffffffffffffffffff1681565b6000600f80549050905090565b60115481565b600260048111156113a657fe5b601960009054906101000a900460ff1660048111156113c157fe5b1480156113d15750607842014210155b156113df576113de611f0a565b5b60028060048111156113ed57fe5b601960009054906101000a900460ff16600481111561140857fe5b14151561141457600080fd5b60016018541415801561143557506001600260185481151561143257fe5b06145b156114d25761144383611f57565b151561144e57600080fd5b600f83908060018154018082558091505090600182039060005260206000200160009091929091909150555033600360006101000a81548173ffffffffffffffffffffffffffffffffffffffff021916908373ffffffffffffffffffffffffffffffffffffffff16021790555060186000815480929190600101919050555061157e565b600060026018548115156114e257fe5b06141561157d576114f283611f57565b15156114fd57600080fd5b600d83908060018154018082558091505090600182039060005260206000200160009091929091909150555033600260006101000a81548173ffffffffffffffffffffffffffffffffffffffff021916908373ffffffffffffffffffffffffffffffffffffffff1602179055506018600081548092919060010191905055505b5b611586610a7b565b5061158f611386565b506001601854141580156115b15750600160026018548115156115ae57fe5b06145b156116d657600182141561166f57600d60016115cb610a7b565b038154811015156115d857fe5b9060005260206000200154600e819055506009600e5490806001815401808255809150509060018203906000526020600020016000909192909190915055506011600081548092919060010191905055506005601154141561166e577fbd760552189f6fcfe36e948635917aaddec6051d7eac878d812037348b4697f26007546040518082815260200191505060405180910390a15b5b60028214156116d157600d6001611684610a7b565b0381548110151561169157fe5b9060005260206000200154600e819055506001600a6000600e54815260200190815260200160002060006101000a81548160ff0219169083151502179055505b61180a565b600060026018548115156116e657fe5b0614156118095760018214156117a657600f6001611702611386565b0381548110151561170f57fe5b9060005260206000200154601081905550600b600e549080600181540180825580915050906001820390600052602060002001600090919290919091505550601260008154809291906001019190505550600560125414156117a5577fbd760552189f6fcfe36e948635917aaddec6051d7eac878d812037348b4697f26007546040518082815260200191505060405180910390a15b5b600282141561180857600f60016117bb611386565b038154811015156117c857fe5b90600052602060002001546010819055506001600c6000601054815260200190815260200160002060006101000a81548160ff0219169083151502179055505b5b5b6078601a54014210151561182157611820611f0a565b5b611829611f0a565b505050565b6000809054906101000a900473ffffffffffffffffffffffffffffffffffffffff1681565b600c6020528060005260406000206000915054906101000a900460ff1681565b60185481565b601a5481565b600a6020528060005260406000206000915054906101000a900460ff1681565b600060038060048111156118af57fe5b601960009054906101000a900460ff1660048111156118ca57fe5b1415156118d657600080fd5b600560098054905014156119a95760009150600091505b600580549050600010156119a4576001600c600084815260200190815260200160002060006101000a81548160ff02191690831515021790551561199757600260009054906101000a900473ffffffffffffffffffffffffffffffffffffffff16601360006101000a81548173ffffffffffffffffffffffffffffffffffffffff021916908373ffffffffffffffffffffffffffffffffffffffff16021790555081806001019250505b81806001019250506118ed565b611b97565b6005600b805490501415611a7857600091505b60068054905060001015611a73576001600a600084815260200190815260200160002060006101000a81548160ff021916908315150217905515611a6657600360009054906101000a900473ffffffffffffffffffffffffffffffffffffffff16601460006101000a81548173ffffffffffffffffffffffffffffffffffffffff021916908373ffffffffffffffffffffffffffffffffffffffff16021790555081806001019250505b81806001019250506119bc565b611b96565b60006002601854811515611a8857fe5b06148015611a9b57506005600980549050105b15611b0857600260009054906101000a900473ffffffffffffffffffffffffffffffffffffffff16601560006101000a81548173ffffffffffffffffffffffffffffffffffffffff021916908373ffffffffffffffffffffffffffffffffffffffff160217905550611b95565b60016002601854811515611b1857fe5b06148015611b2b57506005600b80549050105b15611b9457600360009054906101000a900473ffffffffffffffffffffffffffffffffffffffff16601660006101000a81548173ffffffffffffffffffffffffffffffffffffffff021916908373ffffffffffffffffffffffffffffffffffffffff1602179055505b5b5b5b611b9f611f0a565b5050565b601960009054906101000a900460ff1681565b60085481565b600e5481565b600260009054906101000a900473ffffffffffffffffffffffffffffffffffffffff1681565b600b81815481101515611bf757fe5b906000526020600020016000915090505481565b601660009054906101000a900473ffffffffffffffffffffffffffffffffffffffff1681565b6000806004811115611c3f57fe5b601960009054906101000a900460ff166004811115611c5a57fe5b141515611c6657600080fd5b60006018541415611e0a5733600260006101000a81548173ffffffffffffffffffffffffffffffffffffffff021916908373ffffffffffffffffffffffffffffffffffffffff1602179055506001600260009054906101000a900473ffffffffffffffffffffffffffffffffffffffff1690806001815401808255809150509060018203906000526020600020016000909192909190916101000a81548173ffffffffffffffffffffffffffffffffffffffff021916908373ffffffffffffffffffffffffffffffffffffffff16021790555050674563918244f4000034141515611d5057600080fd5b606060405190810160405280600160ff168152602001603760ff168152602001603860ff168152506005906003611d88929190611f72565b5034600460008060009054906101000a900473ffffffffffffffffffffffffffffffffffffffff1673ffffffffffffffffffffffffffffffffffffffff1673ffffffffffffffffffffffffffffffffffffffff168152602001908152602001600020600082825401925050819055506018600081548092919060010191905055505b611e12611f0a565b50565b60075481565b600f81815481101515611e2a57fe5b906000526020600020016000915090505481565b6000601254905090565b60105481565b601460009054906101000a900473ffffffffffffffffffffffffffffffffffffffff1681565b6060600d805480602002602001604051908101604052809291908181526020018280548015611ec257602002820191906000526020600020905b815481526020019060010190808311611eae575b5050505050905090565b600181815481101515611edb57fe5b906000526020600020016000915054906101000a900473ffffffffffffffffffffffffffffffffffffffff1681565b6001601960009054906101000a900460ff166004811115611f2757fe5b016004811115611f3357fe5b601960006101000a81548160ff02191690836004811115611f5057fe5b0217905550565b600060018210158015611f6b575060648211155b9050919050565b828054828255906000526020600020908101928215611fb3579160200282015b82811115611fb2578251829060ff16905591602001919060010190611f92565b5b509050611fc09190611fc4565b5090565b611fe691905b80821115611fe2576000816000905550600101611fca565b5090565b905600a165627a7a72305820be576bfb35d6c05e7e82b4b1130bd1be5374c19fd487b1c13178a9da81638b6a0029a165627a7a7230582085b2820abe294a764876d2268ed4ecd5036e6b66f3f943231c7ab211eceaeeb60029",
  "source": "pragma solidity ^0.4.24;\n\n\ncontract BattleshipFactory {\n    address[] public deployedBattleships;\n\n    function createBattleship() public { \n        // address newBattleship = new Battleship();\n        // deployedBattleships.push(newBattleship);\n        Battleship battleship = new Battleship();\n    }\n\n    function getDeployedBattleships() public view returns (address[]) {\n        return deployedBattleships;\n    }\n}\n\ncontract Battleship {\n\n    // ================================================================================\n    // GLOBAL VARIABLES\n    // ================================================================================\n    address public owner;\n    address[] public players;\n    address public player1;\n    address public player2;\n    mapping (address => uint) public balances;\n\n    int[] internal p1Board;\n    int[] internal p2Board;\n\n    uint public gameId;\n    uint public minimumBet;\n\n    uint[] public p1Hits;\n    mapping(uint => bool) public p1Misses;\n    \n    uint[] public p2Hits;\n    mapping(uint => bool) public p2Misses;\n    \n    uint[] public p1LogOfGuesses;\n    uint public p1Position;\n\n    uint[] public p2LogOfGuesses;\n    uint public p2Position;\n    \n    uint public p1SuccessfulGuesses;\n    uint public p2SuccessfulGuesses;\n\n    address public badActor1;\n    address public badActor2;\n    \n    address public forfeit1;\n    address public forfeit2;\n\n    mapping(uint => Turn) turns;\n    uint public turnCount;      // decided to increment turnCount rather than\n                                // use `Turns[] public turns;` with State, i.e.,\n                                // create a State `nextTurn` and then\n                                // step through sequential turns with (a) functions,\n                                // e.g., `function turnOne() {}`, `function\n                                // turnTwo() {}` or (b) a for loop - whose\n                                // gas cost increases linearly with the number\n                                // of iterations\n    \n    struct Turn {\n        uint gameId;\n        uint guess;\n        uint result;\n        Stages stage;\n        mapping(uint => bool) p1Hits;\n        mapping(uint => bool) p1Misses;\n        mapping(uint => bool) p2Hits;\n        mapping(uint => bool) p2Misses;\n    }\n    \n    // ================================================================================\n    // MODIFIERS\n    // ================================================================================\n\n    modifier restricted() {\n        require(msg.sender == owner);\n        _;\n    }  \n\n    // ================================================================================\n    // STATE \n    // ================================================================================\n    enum Stages { \n        startOfGame,           // @dev start game\n        acceptTheChallenge,    // @dev begin play\n        takeYourTurnAttacking, // @dev take turns attacking\n        gameIsOver,            // @dev end of play\n        declareTheWinner       // @dev declare winner and payout\n    }\n    \n    // This is the current stage.\n    Stages public stage = Stages.startOfGame;\n\n    uint public startTurn = now;\n\n    modifier atStage(Stages _stage) {\n        require(stage == _stage);\n        _;\n    }\n    \n    // @param This modifier goes to the next stage after the function is done.\n    modifier transitionNext()\n    {\n        _;\n        nextStage();\n    }\n    \n    function nextStage() internal {\n        stage = Stages(uint(stage) + 1);\n    }\n   \n    modifier timedTransitions() {\n        if (stage == Stages.takeYourTurnAttacking && now >= now + 2 minutes) {\n            nextStage();\n        }\n        // The other stages transition by transaction\n        _;\n    }\n\n    // ================================================================================\n    // EVENTS\n    // ================================================================================\n    event StartOfGame(uint gameId);\n    event AcceptTheChallenge(uint gameId);\n    event TakeYourTurnAttacking(uint gameId);\n    event GameIsOver(uint gameId);\n    event DeclareTheWinner(uint gameId);\n    \n    // ================================================================================\n    // GAME \n    // ================================================================================\n\n    // @dev constructor function. Sets contract owner\n    constructor() public payable {\n        owner = msg.sender;    // casino deploys contract and holds bets\n        // minimumBet = minimum;\n        // balances[owner] = 0;\n        // turnCount = 0;\n    }\n    \n    function isValidNumber(uint _guess) private pure returns (bool) {\n        return _guess >= 1 && _guess <= 100;\n    }\n    \n    function getLengthP1() public constant returns(uint length) {\n        return p1LogOfGuesses.length;\n    }\n    \n    function getLengthP2() public constant returns(uint length) {\n        return p2LogOfGuesses.length;\n    }\n    \n    function getHitsP1() public constant returns(uint length) {\n        return p1Hits.length;\n    }\n    \n    function getHitsP2() public constant returns(uint length) {\n        return p2Hits.length;\n    }\n\n    // function getTurnCount() public constant returns(int){\n    //     if (int(turnCount) == 0) {\n    //         return 0;\n    //     } else {\n    //         return int(turnCount);\n    //     }\n    // } \n    \n    // ================================================================================\n    // ACTION:  player 1 initiates a game by submitting the entry fee\n    // NOTE:    turncount is initialized to 0.  This is the first turn\n    // ================================================================================\n    \n    // player 1 initiates a game\n    // function startGame(address creator)             // see BattleshipFactory\n    function startGame()\n        public\n        payable\n        atStage(Stages.startOfGame)\n        transitionNext\n    {\n        if (turnCount == 0) {\n            // pay entry fee to owner aka casino / house\n            // player1 = creator;                   // see BattleshipFactory\n            player1 = msg.sender;\n            players.push(player1);\n            if (msg.value != 5 ether) revert();  // pay entry fee to owner\n            // require(msg.value > minimumBet);  // variable betting not enabled\n            // submit board\n            p1Board = [1,55,56];                // TEST ONLY - REMOVE\n            balances[owner] += msg.value;\n            turnCount++;                        // or turns.push(newTurn);\n        } \n    }\n    \n    // ================================================================================\n    // ACTION:  player 2 accepts the challenge by submitting their bet, and\n    //          takes the first shot by submitting a guess (aka board position)\n    // NOTE:    this is turn 2, so\n    //              player 1 is the 'odd' player [ modulo = 1 ]\n    //              player 2 is the 'even' player [ modulo = 0 ]\n    // ================================================================================\n    \n    // player 2 accepts the challenge, submits their bet, and\n    // takes the first shot by submitting a guess aka board position\n    function acceptChallenge(uint guess) \n        public\n        payable\n        atStage(Stages.acceptTheChallenge)\n        transitionNext\n    {\n        // Player 2 accepts the challenge / pays the entry fee \n        // and attacks player 1 (during turnCount 2), so \n        // player 1 is the 'odd' player [ modulo = 1 ]\n        // player 2 is the 'even' player [ modulo = 0 ]\n        \n        if (turnCount == 1) {\n            player2 = msg.sender;\n            if (msg.value != 5 ether) revert();\n            balances[owner] += msg.value;\n            // submit board\n            p2Board = [21,22,23];\n            // initiate an attack with a guess aka position\n            // save a 'log' of attacks / positions \n            p2LogOfGuesses.push(guess);\n            turnCount++;\n        }\n    }\n    \n    // ================================================================================\n    // ACTION:  send your guess to your opponent and send the result of their try to them\n    // NOTE:    Since their opponents board is 'hidden', only the player receiving \n    //          the hit can state whether a hit or miss occurred\n    //\n    //          hit = 1; miss = 2\n    //\n    //          IMPORTANTLY, this is designed to catch a cheater.  We assume players\n    //          will honestly return the result of an attack, i.e., correctly send a hit\n    //          or miss.  A dishonest player might mark a hit as a miss.  When their \n    //          board is revealed, we'll compare the shots marked misses against the\n    //          positions they submitted.\n    // ================================================================================\n    \n    // send your guess to opponent and\n    // send result of opponent's try to them\n    // hit = 1\n    // miss = 2\n\n    function takeTurnsAttacking(uint guess, uint result)\n        public \n        payable\n        timedTransitions\n        atStage(Stages.takeYourTurnAttacking)\n        transitionNext\n    {   \n        \n        if ((turnCount != 1) && (turnCount % 2 == 1)) {     // player 2\n            startTurn;                               // to catch forfeits    \n            require(isValidNumber(guess));\n            // make a new guess aka attack / position\n            // and save your guess\n            p2LogOfGuesses.push(guess);\n            // send P1 the result of their attack\n            player2 = msg.sender;\n            turnCount++;\n            \n        } else if (turnCount % 2 == 0) {  // player 1\n            startTurn;                               // to catch forfeits   \n            require(isValidNumber(guess));\n            // make a new guess aka attack / position\n            // and save your guess\n            p1LogOfGuesses.push(guess);\n            // send P2 the result of their attack\n            player1 = msg.sender;\n            turnCount++;\n            \n        // Since P1 knows if P2's guess was a hit / miss, when sending \n        // the 'result', P1 logs the hit or miss using the\n        // position logged by P2 when sending their guess\n        }\n        \n        getLengthP1();\n        getLengthP2();\n        \n        if ((turnCount != 1) && (turnCount % 2 == 1)) {         // player 2                              // to catch forfeits    \n            if (result == 1) { \n                p1Position = p1LogOfGuesses[getLengthP1()-1];\n                p1Hits.push(p1Position);\n                p1SuccessfulGuesses++;\n                if (p1SuccessfulGuesses == 5) {\n                    // Turn storage turn = turn;\n                    // turn.gameOver = true;\n                    emit GameIsOver(gameId);\n                    // (player2, \"You win!\")\n                }\n            }\n            if (result == 2) {\n                p1Position = p1LogOfGuesses[getLengthP1()-1];\n                p1Misses[p1Position] = true;\n            }\n        } else if (turnCount % 2 == 0) {                        // player 1\n            if (result == 1) {\n                p2Position = p2LogOfGuesses[getLengthP2()-1];\n                p2Hits.push(p1Position);\n                p2SuccessfulGuesses++;\n                if (p2SuccessfulGuesses == 5) {\n                    // turn.gameOver = true;\n                    emit GameIsOver(gameId);\n                    // (player1, \"You win!\")\n                }\n            }\n            if (result == 2) {\n                p2Position = p2LogOfGuesses[getLengthP2()-1];\n                p2Misses[p2Position] = true;\n            }\n        } if (now >= startTurn + 2 minutes) {\n            nextStage();\n        } \n    }\n    \n    function getP1LogOfGuesses() public view returns(uint[]) {\n        return p1LogOfGuesses;\n    }\n    \n    function getP2LogOfGuesses() public view returns(uint[]) {\n        return p2LogOfGuesses;\n    }\n    \n    function getP1Hits() public view returns(uint) {\n        return p1SuccessfulGuesses;\n    }\n    \n    function getP2Hits() public view returns(uint) {\n        return p2SuccessfulGuesses;\n    }\n    \n    // ================================================================================\n    // ACTION:  game ends when:\n    //          1. a player has 17 hits, i.e., sinks all of their opponent's ships\n    //          2. a player walks away from the game, i.e., does not respond to an\n    //             attack in the alloted 2 minutes\n    // NOTE:    Payout:\n    //          1. Cheating: \n    //              (a) if one player cheats, they lose their funds. \n    //                  - owner gets to keep 0.2 ether, \n    //                  - winning player gets 0.8 ether\n    //              (b) if both players cheat, the owner keeps the entire pot\n    //          2. Sore loser:\n    //              We create an incentive to complete the game:\n    //               (a) player abandoning game rather than announcing win gets 0\n    //               (b) owner gets to keep 0.2 ether, \n    //               (c) winning player gets 0.8 ether\n    //          3. Fair win:\n    //              (a) owner gets to keep 0.2 ether,\n    //              (b) losing player gets 0.2 ether,\n    //              (c) winning player gets 0.6 ether.\n    // ================================================================================              \n    \n    function gameOver() \n        public \n        payable\n        atStage(Stages.gameIsOver)\n        transitionNext\n    {                                     // reveal boards\n        if (p1Hits.length == 5) {\n            // reveal of P1's board\n            // compare to misses P1 reported to P2\n            uint i = 0;\n            for (i = 0; 0 < p1Board.length; i++) {\n                if (p2Misses[i] = true) {\n                    badActor1 = player1;    // p1 cheated by calling a hit a miss\n                    i++;\n                } \n            }\n        } else if (p2Hits.length == 5) {   \n            // reveal of P2's board\n            // compare to misses P2 reported to P1\n\n            for (i = 0; 0 < p2Board.length; i++) {\n                if (p1Misses[i] = true) {\n                    badActor2 = player2;    // p2 cheated by calling a hit a miss\n                    i++;\n                } \n            }     \n             \n        // forfeit if do not respond in 2 minutes\n        // implies (a) still prior turn / opponent's turn because turnCount hasn't incremented \n        // implies winning player will have less hits than the number required to win\n        } else if ((turnCount % 2 == 0) && (p1Hits.length < 5)) {\n                forfeit1 = player1;\n            } else if ((turnCount % 2 == 1) && (p2Hits.length < 5)) {\n                forfeit2 = player2;\n            }\n        } \n    \n    function declareWinner() \n        public \n        payable\n        atStage(Stages.declareTheWinner)\n    {   \n        if ((badActor1 == 0) && (badActor2 == 0)) {  // can test for null address with 0\n            if (p1Hits.length == 5) {   // for test purposes 5 rather than 17\n                                        // p2 said \"You win!\"\n                                        // so p2 earns completion incentive\n                balances[owner] -= 8;\n                balances[player1] += 6;\n                balances[player2] += 2;\n            \n            } else if (p2Hits.length == 5) { // for test purposes 5 rather than 17\n                                             // p1 said \"You win!\"\n                                             // so p1 earns completion incentive\n                balances[owner] -= 8;\n                balances[player2] += 6;\n                balances[player1] += 2;\n\n        } if (forfeit1 != 0) {    // p1 forteit\n            balances[owner] -= 8;\n            balances[player2] += 8;\n        } if (forfeit2 != 0) {    // p2 forfeit\n            balances[owner] -= 8;\n            balances[player2] += 8;\n        } if ((badActor1 != 0) && (badActor2 != 0)) {    // do nothing,\n        }                                          // owner keeps the pot\n        }\n    \n    }\n}",
  "sourcePath": "/Users/dougharman/Battleship/contracts/Battleship.sol",
  "compiler": {
    "name": "solc",
    "version": "0.4.24+commit.e67f0147.Emscripten.clang"
  },
  "schemaVersion": "2.0.1",
  "updatedAt": "2018-08-20T18:11:37.693Z"
}