{
  "contractName": "Battleship",
  "abi": [
    {
      "constant": true,
      "inputs": [
        {
          "name": "",
          "type": "uint256"
        }
      ],
      "name": "p1LogOfGuesses",
      "outputs": [
        {
          "name": "",
          "type": "uint256"
        }
      ],
      "payable": false,
      "stateMutability": "view",
      "type": "function"
    },
    {
      "constant": true,
      "inputs": [],
      "name": "badActor1",
      "outputs": [
        {
          "name": "",
          "type": "address"
        }
      ],
      "payable": false,
      "stateMutability": "view",
      "type": "function"
    },
    {
      "constant": true,
      "inputs": [],
      "name": "p2PositionsDiscovered",
      "outputs": [
        {
          "name": "",
          "type": "uint256"
        }
      ],
      "payable": false,
      "stateMutability": "view",
      "type": "function"
    },
    {
      "constant": true,
      "inputs": [
        {
          "name": "",
          "type": "uint256"
        }
      ],
      "name": "p1Hits",
      "outputs": [
        {
          "name": "",
          "type": "uint256"
        }
      ],
      "payable": false,
      "stateMutability": "view",
      "type": "function"
    },
    {
      "constant": true,
      "inputs": [],
      "name": "forfeit1",
      "outputs": [
        {
          "name": "",
          "type": "address"
        }
      ],
      "payable": false,
      "stateMutability": "view",
      "type": "function"
    },
    {
      "constant": true,
      "inputs": [],
      "name": "player2",
      "outputs": [
        {
          "name": "",
          "type": "address"
        }
      ],
      "payable": false,
      "stateMutability": "view",
      "type": "function"
    },
    {
      "constant": true,
      "inputs": [],
      "name": "owner",
      "outputs": [
        {
          "name": "",
          "type": "address"
        }
      ],
      "payable": false,
      "stateMutability": "view",
      "type": "function"
    },
    {
      "constant": true,
      "inputs": [
        {
          "name": "",
          "type": "uint256"
        }
      ],
      "name": "p2Misses",
      "outputs": [
        {
          "name": "",
          "type": "bool"
        }
      ],
      "payable": false,
      "stateMutability": "view",
      "type": "function"
    },
    {
      "constant": true,
      "inputs": [],
      "name": "turnCount",
      "outputs": [
        {
          "name": "",
          "type": "int256"
        }
      ],
      "payable": false,
      "stateMutability": "view",
      "type": "function"
    },
    {
      "constant": true,
      "inputs": [],
      "name": "p1PositionsDiscovered",
      "outputs": [
        {
          "name": "",
          "type": "uint256"
        }
      ],
      "payable": false,
      "stateMutability": "view",
      "type": "function"
    },
    {
      "constant": true,
      "inputs": [],
      "name": "startTurn",
      "outputs": [
        {
          "name": "",
          "type": "uint256"
        }
      ],
      "payable": false,
      "stateMutability": "view",
      "type": "function"
    },
    {
      "constant": true,
      "inputs": [
        {
          "name": "",
          "type": "uint256"
        }
      ],
      "name": "p1Misses",
      "outputs": [
        {
          "name": "",
          "type": "bool"
        }
      ],
      "payable": false,
      "stateMutability": "view",
      "type": "function"
    },
    {
      "constant": true,
      "inputs": [],
      "name": "stage",
      "outputs": [
        {
          "name": "",
          "type": "uint8"
        }
      ],
      "payable": false,
      "stateMutability": "view",
      "type": "function"
    },
    {
      "constant": true,
      "inputs": [],
      "name": "p1Position",
      "outputs": [
        {
          "name": "",
          "type": "uint256"
        }
      ],
      "payable": false,
      "stateMutability": "view",
      "type": "function"
    },
    {
      "constant": true,
      "inputs": [],
      "name": "player1",
      "outputs": [
        {
          "name": "",
          "type": "address"
        }
      ],
      "payable": false,
      "stateMutability": "view",
      "type": "function"
    },
    {
      "constant": true,
      "inputs": [
        {
          "name": "",
          "type": "uint256"
        }
      ],
      "name": "p2Hits",
      "outputs": [
        {
          "name": "",
          "type": "uint256"
        }
      ],
      "payable": false,
      "stateMutability": "view",
      "type": "function"
    },
    {
      "constant": true,
      "inputs": [],
      "name": "forfeit2",
      "outputs": [
        {
          "name": "",
          "type": "address"
        }
      ],
      "payable": false,
      "stateMutability": "view",
      "type": "function"
    },
    {
      "constant": true,
      "inputs": [],
      "name": "gameId",
      "outputs": [
        {
          "name": "",
          "type": "uint256"
        }
      ],
      "payable": false,
      "stateMutability": "view",
      "type": "function"
    },
    {
      "constant": true,
      "inputs": [
        {
          "name": "",
          "type": "uint256"
        }
      ],
      "name": "p2LogOfGuesses",
      "outputs": [
        {
          "name": "",
          "type": "uint256"
        }
      ],
      "payable": false,
      "stateMutability": "view",
      "type": "function"
    },
    {
      "constant": true,
      "inputs": [],
      "name": "p2Position",
      "outputs": [
        {
          "name": "",
          "type": "uint256"
        }
      ],
      "payable": false,
      "stateMutability": "view",
      "type": "function"
    },
    {
      "constant": true,
      "inputs": [
        {
          "name": "",
          "type": "address"
        }
      ],
      "name": "balance",
      "outputs": [
        {
          "name": "",
          "type": "uint256"
        }
      ],
      "payable": false,
      "stateMutability": "view",
      "type": "function"
    },
    {
      "constant": true,
      "inputs": [],
      "name": "badActor2",
      "outputs": [
        {
          "name": "",
          "type": "address"
        }
      ],
      "payable": false,
      "stateMutability": "view",
      "type": "function"
    },
    {
      "constant": true,
      "inputs": [
        {
          "name": "",
          "type": "uint256"
        }
      ],
      "name": "players",
      "outputs": [
        {
          "name": "",
          "type": "address"
        }
      ],
      "payable": false,
      "stateMutability": "view",
      "type": "function"
    },
    {
      "inputs": [],
      "payable": false,
      "stateMutability": "nonpayable",
      "type": "constructor"
    },
    {
      "payable": true,
      "stateMutability": "payable",
      "type": "fallback"
    },
    {
      "anonymous": false,
      "inputs": [
        {
          "indexed": false,
          "name": "gameId",
          "type": "uint256"
        }
      ],
      "name": "LogStartOfGame",
      "type": "event"
    },
    {
      "anonymous": false,
      "inputs": [
        {
          "indexed": false,
          "name": "gameId",
          "type": "uint256"
        }
      ],
      "name": "LogAcceptTheChallenge",
      "type": "event"
    },
    {
      "anonymous": false,
      "inputs": [
        {
          "indexed": false,
          "name": "gameId",
          "type": "uint256"
        }
      ],
      "name": "LogTakeYourTurnAttacking",
      "type": "event"
    },
    {
      "anonymous": false,
      "inputs": [
        {
          "indexed": false,
          "name": "gameId",
          "type": "uint256"
        }
      ],
      "name": "LogGameIsOver",
      "type": "event"
    },
    {
      "anonymous": false,
      "inputs": [
        {
          "indexed": false,
          "name": "gameId",
          "type": "uint256"
        }
      ],
      "name": "LogDeclareTheWinner",
      "type": "event"
    },
    {
      "anonymous": false,
      "inputs": [
        {
          "indexed": false,
          "name": "gameId",
          "type": "uint256"
        }
      ],
      "name": "LogWithdrawTheMoney",
      "type": "event"
    },
    {
      "anonymous": false,
      "inputs": [
        {
          "indexed": true,
          "name": "previousOwner",
          "type": "address"
        }
      ],
      "name": "OwnershipRenounced",
      "type": "event"
    },
    {
      "anonymous": false,
      "inputs": [
        {
          "indexed": true,
          "name": "previousOwner",
          "type": "address"
        },
        {
          "indexed": true,
          "name": "newOwner",
          "type": "address"
        }
      ],
      "name": "OwnershipTransferred",
      "type": "event"
    },
    {
      "constant": false,
      "inputs": [],
      "name": "increment",
      "outputs": [
        {
          "name": "",
          "type": "uint256"
        }
      ],
      "payable": false,
      "stateMutability": "nonpayable",
      "type": "function"
    },
    {
      "constant": true,
      "inputs": [],
      "name": "getLengthP1",
      "outputs": [
        {
          "name": "length",
          "type": "uint256"
        }
      ],
      "payable": false,
      "stateMutability": "view",
      "type": "function"
    },
    {
      "constant": true,
      "inputs": [],
      "name": "getLengthP2",
      "outputs": [
        {
          "name": "length",
          "type": "uint256"
        }
      ],
      "payable": false,
      "stateMutability": "view",
      "type": "function"
    },
    {
      "constant": true,
      "inputs": [],
      "name": "getLengthHitsP1",
      "outputs": [
        {
          "name": "length",
          "type": "uint256"
        }
      ],
      "payable": false,
      "stateMutability": "view",
      "type": "function"
    },
    {
      "constant": true,
      "inputs": [],
      "name": "getLengthHitsP2",
      "outputs": [
        {
          "name": "length",
          "type": "uint256"
        }
      ],
      "payable": false,
      "stateMutability": "view",
      "type": "function"
    },
    {
      "constant": false,
      "inputs": [],
      "name": "startGame",
      "outputs": [],
      "payable": true,
      "stateMutability": "payable",
      "type": "function"
    },
    {
      "constant": false,
      "inputs": [
        {
          "name": "guess",
          "type": "uint256"
        }
      ],
      "name": "acceptChallenge",
      "outputs": [],
      "payable": true,
      "stateMutability": "payable",
      "type": "function"
    },
    {
      "constant": false,
      "inputs": [
        {
          "name": "guess",
          "type": "uint256"
        },
        {
          "name": "result",
          "type": "uint256"
        }
      ],
      "name": "takeTurnsAttacking",
      "outputs": [],
      "payable": true,
      "stateMutability": "payable",
      "type": "function"
    },
    {
      "constant": true,
      "inputs": [],
      "name": "getP1LogOfGuesses",
      "outputs": [
        {
          "name": "",
          "type": "uint256[]"
        }
      ],
      "payable": false,
      "stateMutability": "view",
      "type": "function"
    },
    {
      "constant": true,
      "inputs": [],
      "name": "getP2LogOfGuesses",
      "outputs": [
        {
          "name": "",
          "type": "uint256[]"
        }
      ],
      "payable": false,
      "stateMutability": "view",
      "type": "function"
    },
    {
      "constant": true,
      "inputs": [],
      "name": "getP1Hits",
      "outputs": [
        {
          "name": "",
          "type": "uint256"
        }
      ],
      "payable": false,
      "stateMutability": "view",
      "type": "function"
    },
    {
      "constant": true,
      "inputs": [],
      "name": "getP2Hits",
      "outputs": [
        {
          "name": "",
          "type": "uint256"
        }
      ],
      "payable": false,
      "stateMutability": "view",
      "type": "function"
    },
    {
      "constant": false,
      "inputs": [],
      "name": "gameOver",
      "outputs": [],
      "payable": true,
      "stateMutability": "payable",
      "type": "function"
    },
    {
      "constant": false,
      "inputs": [],
      "name": "declareWinner",
      "outputs": [],
      "payable": true,
      "stateMutability": "payable",
      "type": "function"
    },
    {
      "constant": false,
      "inputs": [],
      "name": "withdrawMoney",
      "outputs": [],
      "payable": true,
      "stateMutability": "payable",
      "type": "function"
    },
    {
      "constant": false,
      "inputs": [],
      "name": "toggleContractActive",
      "outputs": [],
      "payable": false,
      "stateMutability": "nonpayable",
      "type": "function"
    },
    {
      "constant": false,
      "inputs": [],
      "name": "renounceOwnership",
      "outputs": [],
      "payable": false,
      "stateMutability": "nonpayable",
      "type": "function"
    },
    {
      "constant": false,
      "inputs": [
        {
          "name": "_newOwner",
          "type": "address"
        }
      ],
      "name": "transferOwnership",
      "outputs": [],
      "payable": false,
      "stateMutability": "nonpayable",
      "type": "function"
    },
    {
      "constant": false,
      "inputs": [],
      "name": "kill",
      "outputs": [],
      "payable": false,
      "stateMutability": "nonpayable",
      "type": "function"
    },
    {
      "constant": true,
      "inputs": [],
      "name": "getContractAddress",
      "outputs": [
        {
          "name": "",
          "type": "address"
        }
      ],
      "payable": false,
      "stateMutability": "view",
      "type": "function"
    },
    {
      "constant": true,
      "inputs": [],
      "name": "getContractBalance",
      "outputs": [
        {
          "name": "",
          "type": "uint256"
        }
      ],
      "payable": false,
      "stateMutability": "view",
      "type": "function"
    },
    {
      "constant": true,
      "inputs": [],
      "name": "getPlayer1",
      "outputs": [
        {
          "name": "",
          "type": "address"
        }
      ],
      "payable": false,
      "stateMutability": "view",
      "type": "function"
    },
    {
      "constant": true,
      "inputs": [],
      "name": "getPlayer2",
      "outputs": [
        {
          "name": "",
          "type": "address"
        }
      ],
      "payable": false,
      "stateMutability": "view",
      "type": "function"
    }
  ],
  "bytecode": "0x608060405260008060146101000a81548160ff0219169083151502179055506000600760006101000a81548160ff0219169083151502179055506000601b60006101000a81548160ff0219169083600581111561005857fe5b021790555042601c5534801561006d57600080fd5b50336000806101000a81548173ffffffffffffffffffffffffffffffffffffffff021916908373ffffffffffffffffffffffffffffffffffffffff16021790555033600260006101000a81548173ffffffffffffffffffffffffffffffffffffffff021916908373ffffffffffffffffffffffffffffffffffffffff1602179055506000601a819055506001600a81905550612afd8061010e6000396000f300608060405260043610610230576000357c0100000000000000000000000000000000000000000000000000000000900463ffffffff16806301ab2a6614610235578063081d5aa51461028c578063086c286a146102cd5780630c54000f146102f85780630d94ab8c146103235780631385d24c1461037a57806314034bd2146103915780631b0fc1061461039b5780631b267622146103bb5780631bb6cb47146103e65780631f80f4e31461043d5780631f99d37c1461046857806332a2c5d0146104a9578063344a1c9d1461050057806334b2eda91461056c57806341c0e1b5146105c357806359a5f12d146105da5780635d6450b6146106315780636f9fb98a1461065c578063715018a6146106875780638538dfed1461069e5780638da5cb5b146106c85780639066772c1461071f57806393c6be491461074a578063ac4460021461078f578063ae4ccdf314610799578063afde32d4146107c4578063b250af26146107ef578063b88a1dbb1461081a578063bdb337d11461085f578063c040e6b814610869578063ce1fbaea146108a2578063d09de08a146108cd578063d30895e4146108f8578063d5ad7a8b1461094f578063d5c019a514610990578063d65ab5f2146109e7578063d7c81b55146109f1578063d995b36b14610a1c578063da5c354114610a5d578063e19338b314610a88578063e3d670d714610ab3578063e8e56a8814610b0a578063e9cd822214610b61578063f2fde38b14610bcd578063f71d96cb14610c10575b600080fd5b34801561024157600080fd5b5061024a610c7d565b604051808273ffffffffffffffffffffffffffffffffffffffff1673ffffffffffffffffffffffffffffffffffffffff16815260200191505060405180910390f35b34801561029857600080fd5b506102b760048036038101908080359060200190929190505050610ca7565b6040518082815260200191505060405180910390f35b3480156102d957600080fd5b506102e2610cca565b6040518082815260200191505060405180910390f35b34801561030457600080fd5b5061030d610cd7565b6040518082815260200191505060405180910390f35b34801561032f57600080fd5b50610338610ce4565b604051808273ffffffffffffffffffffffffffffffffffffffff1673ffffffffffffffffffffffffffffffffffffffff16815260200191505060405180910390f35b34801561038657600080fd5b5061038f610d0a565b005b610399610d91565b005b6103b96004803603810190808035906020019092919050505061154c565b005b3480156103c757600080fd5b506103d0611774565b6040518082815260200191505060405180910390f35b3480156103f257600080fd5b506103fb61177a565b604051808273ffffffffffffffffffffffffffffffffffffffff1673ffffffffffffffffffffffffffffffffffffffff16815260200191505060405180910390f35b34801561044957600080fd5b506104526117a4565b6040518082815260200191505060405180910390f35b34801561047457600080fd5b50610493600480360381019080803590602001909291905050506117ae565b6040518082815260200191505060405180910390f35b3480156104b557600080fd5b506104be6117d1565b604051808273ffffffffffffffffffffffffffffffffffffffff1673ffffffffffffffffffffffffffffffffffffffff16815260200191505060405180910390f35b34801561050c57600080fd5b506105156117d9565b6040518080602001828103825283818151815260200191508051906020019060200280838360005b8381101561055857808201518184015260208101905061053d565b505050509050019250505060405180910390f35b34801561057857600080fd5b50610581611831565b604051808273ffffffffffffffffffffffffffffffffffffffff1673ffffffffffffffffffffffffffffffffffffffff16815260200191505060405180910390f35b3480156105cf57600080fd5b506105d8611857565b005b3480156105e657600080fd5b506105ef6118ea565b604051808273ffffffffffffffffffffffffffffffffffffffff1673ffffffffffffffffffffffffffffffffffffffff16815260200191505060405180910390f35b34801561063d57600080fd5b50610646611910565b6040518082815260200191505060405180910390f35b34801561066857600080fd5b5061067161191d565b6040518082815260200191505060405180910390f35b34801561069357600080fd5b5061069c61193c565b005b6106c66004803603810190808035906020019092919080359060200190929190505050611a4e565b005b3480156106d457600080fd5b506106dd611fa6565b604051808273ffffffffffffffffffffffffffffffffffffffff1673ffffffffffffffffffffffffffffffffffffffff16815260200191505060405180910390f35b34801561072b57600080fd5b50610734611fcc565b6040518082815260200191505060405180910390f35b34801561075657600080fd5b5061077560048036038101908080359060200190929190505050611fd9565b604051808215151515815260200191505060405180910390f35b610797611ff9565b005b3480156107a557600080fd5b506107ae612082565b6040518082815260200191505060405180910390f35b3480156107d057600080fd5b506107d9612088565b6040518082815260200191505060405180910390f35b3480156107fb57600080fd5b5061080461208e565b6040518082815260200191505060405180910390f35b34801561082657600080fd5b5061084560048036038101908080359060200190929190505050612094565b604051808215151515815260200191505060405180910390f35b6108676120b4565b005b34801561087557600080fd5b5061087e612408565b6040518082600581111561088e57fe5b60ff16815260200191505060405180910390f35b3480156108ae57600080fd5b506108b761241b565b6040518082815260200191505060405180910390f35b3480156108d957600080fd5b506108e2612421565b6040518082815260200191505060405180910390f35b34801561090457600080fd5b5061090d6124d1565b604051808273ffffffffffffffffffffffffffffffffffffffff1673ffffffffffffffffffffffffffffffffffffffff16815260200191505060405180910390f35b34801561095b57600080fd5b5061097a600480360381019080803590602001909291905050506124f7565b6040518082815260200191505060405180910390f35b34801561099c57600080fd5b506109a561251a565b604051808273ffffffffffffffffffffffffffffffffffffffff1673ffffffffffffffffffffffffffffffffffffffff16815260200191505060405180910390f35b6109ef612540565b005b3480156109fd57600080fd5b50610a06612776565b6040518082815260200191505060405180910390f35b348015610a2857600080fd5b50610a476004803603810190808035906020019092919050505061277c565b6040518082815260200191505060405180910390f35b348015610a6957600080fd5b50610a7261279f565b6040518082815260200191505060405180910390f35b348015610a9457600080fd5b50610a9d6127a9565b6040518082815260200191505060405180910390f35b348015610abf57600080fd5b50610af4600480360381019080803573ffffffffffffffffffffffffffffffffffffffff1690602001909291905050506127af565b6040518082815260200191505060405180910390f35b348015610b1657600080fd5b50610b1f6127c7565b604051808273ffffffffffffffffffffffffffffffffffffffff1673ffffffffffffffffffffffffffffffffffffffff16815260200191505060405180910390f35b348015610b6d57600080fd5b50610b766127ed565b6040518080602001828103825283818151815260200191508051906020019060200280838360005b83811015610bb9578082015181840152602081019050610b9e565b505050509050019250505060405180910390f35b348015610bd957600080fd5b50610c0e600480360381019080803573ffffffffffffffffffffffffffffffffffffffff169060200190929190505050612845565b005b348015610c1c57600080fd5b50610c3b600480360381019080803590602001909291905050506128ba565b604051808273ffffffffffffffffffffffffffffffffffffffff1673ffffffffffffffffffffffffffffffffffffffff16815260200191505060405180910390f35b6000600460009054906101000a900473ffffffffffffffffffffffffffffffffffffffff16905090565b600f81815481101515610cb657fe5b906000526020600020016000915090505481565b6000600b80549050905090565b6000600f80549050905090565b601560009054906101000a900473ffffffffffffffffffffffffffffffffffffffff1681565b6000809054906101000a900473ffffffffffffffffffffffffffffffffffffffff1673ffffffffffffffffffffffffffffffffffffffff163373ffffffffffffffffffffffffffffffffffffffff16141515610d6557600080fd5b600760009054906101000a900460ff1615600760006101000a81548160ff021916908315150217905550565b600060149054906101000a900460ff16151515610dad57600080fd5b6001600060146101000a81548160ff0219169083151502179055506004806005811115610dd657fe5b601b60009054906101000a900460ff166005811115610df157fe5b141515610dfd57600080fd5b6000601560009054906101000a900473ffffffffffffffffffffffffffffffffffffffff1673ffffffffffffffffffffffffffffffffffffffff16148015610e7d57506000601660009054906101000a900473ffffffffffffffffffffffffffffffffffffffff1673ffffffffffffffffffffffffffffffffffffffff16145b1561152f576005600b80549050141561101d57600860066000600260009054906101000a900473ffffffffffffffffffffffffffffffffffffffff1673ffffffffffffffffffffffffffffffffffffffff1673ffffffffffffffffffffffffffffffffffffffff168152602001908152602001600020600082825403925050819055506006806000600460009054906101000a900473ffffffffffffffffffffffffffffffffffffffff1673ffffffffffffffffffffffffffffffffffffffff1673ffffffffffffffffffffffffffffffffffffffff16815260200190815260200160002060008282540192505081905550600260066000600560009054906101000a900473ffffffffffffffffffffffffffffffffffffffff1673ffffffffffffffffffffffffffffffffffffffff1673ffffffffffffffffffffffffffffffffffffffff168152602001908152602001600020600082825401925050819055507f79676f5b3776cb423dfd9ac8afb15ebf8ff87d2bfae04da7ddff8f1f13ba9b8c600a546040518082815260200191505060405180910390a16111b5565b6005600d8054905014156111b457600860066000600260009054906101000a900473ffffffffffffffffffffffffffffffffffffffff1673ffffffffffffffffffffffffffffffffffffffff1673ffffffffffffffffffffffffffffffffffffffff168152602001908152602001600020600082825403925050819055506006806000600560009054906101000a900473ffffffffffffffffffffffffffffffffffffffff1673ffffffffffffffffffffffffffffffffffffffff1673ffffffffffffffffffffffffffffffffffffffff16815260200190815260200160002060008282540192505081905550600260066000600460009054906101000a900473ffffffffffffffffffffffffffffffffffffffff1673ffffffffffffffffffffffffffffffffffffffff1673ffffffffffffffffffffffffffffffffffffffff168152602001908152602001600020600082825401925050819055507f79676f5b3776cb423dfd9ac8afb15ebf8ff87d2bfae04da7ddff8f1f13ba9b8c600a546040518082815260200191505060405180910390a15b5b6000601760009054906101000a900473ffffffffffffffffffffffffffffffffffffffff1673ffffffffffffffffffffffffffffffffffffffff1614151561131157600860066000600260009054906101000a900473ffffffffffffffffffffffffffffffffffffffff1673ffffffffffffffffffffffffffffffffffffffff1673ffffffffffffffffffffffffffffffffffffffff16815260200190815260200160002060008282540392505081905550600860066000600560009054906101000a900473ffffffffffffffffffffffffffffffffffffffff1673ffffffffffffffffffffffffffffffffffffffff1673ffffffffffffffffffffffffffffffffffffffff168152602001908152602001600020600082825401925050819055507f79676f5b3776cb423dfd9ac8afb15ebf8ff87d2bfae04da7ddff8f1f13ba9b8c600a546040518082815260200191505060405180910390a15b6000601860009054906101000a900473ffffffffffffffffffffffffffffffffffffffff1673ffffffffffffffffffffffffffffffffffffffff1614151561146d57600860066000600260009054906101000a900473ffffffffffffffffffffffffffffffffffffffff1673ffffffffffffffffffffffffffffffffffffffff1673ffffffffffffffffffffffffffffffffffffffff16815260200190815260200160002060008282540392505081905550600860066000600560009054906101000a900473ffffffffffffffffffffffffffffffffffffffff1673ffffffffffffffffffffffffffffffffffffffff1673ffffffffffffffffffffffffffffffffffffffff168152602001908152602001600020600082825401925050819055507f79676f5b3776cb423dfd9ac8afb15ebf8ff87d2bfae04da7ddff8f1f13ba9b8c600a546040518082815260200191505060405180910390a15b6000601560009054906101000a900473ffffffffffffffffffffffffffffffffffffffff1673ffffffffffffffffffffffffffffffffffffffff16141580156114ef57506000601660009054906101000a900473ffffffffffffffffffffffffffffffffffffffff1673ffffffffffffffffffffffffffffffffffffffff1614155b1561152e577f79676f5b3776cb423dfd9ac8afb15ebf8ff87d2bfae04da7ddff8f1f13ba9b8c600a546040518082815260200191505060405180910390a15b5b5060008060146101000a81548160ff021916908315150217905550565b600060149054906101000a900460ff1615151561156857600080fd5b6001600060146101000a81548160ff021916908315150217905550600180600581111561159157fe5b601b60009054906101000a900460ff1660058111156115ac57fe5b1415156115b857600080fd5b6001601a54141561174e5733600560006101000a81548173ffffffffffffffffffffffffffffffffffffffff021916908373ffffffffffffffffffffffffffffffffffffffff160217905550674563918244f400003414151561161a57600080fd5b3460066000600260009054906101000a900473ffffffffffffffffffffffffffffffffffffffff1673ffffffffffffffffffffffffffffffffffffffff1673ffffffffffffffffffffffffffffffffffffffff1681526020019081526020016000206000828254019250508190555060a060405190810160405280601560ff168152602001601660ff168152602001601760ff168152602001601860ff168152602001601960ff1681525060099060056116d5929190612a5a565b506011829080600181540180825580915050906001820390600052602060002001600090919290919091505550601a600081548092919060010191905055507f3ae372b88cb49dce1585098ffc9820452eb2cb1a41e36df002f634e337a13768600a546040518082815260200191505060405180910390a15b6117566128f8565b5060008060146101000a81548160ff02191690831515021790555050565b60145481565b6000600560009054906101000a900473ffffffffffffffffffffffffffffffffffffffff16905090565b6000601354905090565b600b818154811015156117bd57fe5b906000526020600020016000915090505481565b600030905090565b6060601180548060200260200160405190810160405280929190818152602001828054801561182757602002820191906000526020600020905b815481526020019060010190808311611813575b5050505050905090565b601760009054906101000a900473ffffffffffffffffffffffffffffffffffffffff1681565b600260009054906101000a900473ffffffffffffffffffffffffffffffffffffffff1673ffffffffffffffffffffffffffffffffffffffff163373ffffffffffffffffffffffffffffffffffffffff1614156118e857600260009054906101000a900473ffffffffffffffffffffffffffffffffffffffff1673ffffffffffffffffffffffffffffffffffffffff16ff5b565b600560009054906101000a900473ffffffffffffffffffffffffffffffffffffffff1681565b6000601180549050905090565b60003073ffffffffffffffffffffffffffffffffffffffff1631905090565b6000809054906101000a900473ffffffffffffffffffffffffffffffffffffffff1673ffffffffffffffffffffffffffffffffffffffff163373ffffffffffffffffffffffffffffffffffffffff1614151561199757600080fd5b600760009054906101000a905050600260009054906101000a900473ffffffffffffffffffffffffffffffffffffffff1673ffffffffffffffffffffffffffffffffffffffff167ff8df31144d9c2f0f6b59d69b8b98abd5459d07f2742c4df920b25aae33c6482060405160405180910390a26000600260006101000a81548173ffffffffffffffffffffffffffffffffffffffff021916908373ffffffffffffffffffffffffffffffffffffffff160217905550565b600060149054906101000a900460ff16151515611a6a57600080fd5b6001600060146101000a81548160ff02191690831515021790555060026005811115611a9257fe5b601b60009054906101000a900460ff166005811115611aad57fe5b148015611abd5750607842014210155b15611acb57611aca6128f8565b5b6002806005811115611ad957fe5b601b60009054906101000a900460ff166005811115611af457fe5b141515611b0057600080fd5b6001601a5414158015611b21575060016002601a54811515611b1e57fe5b07145b15611bf757611b2f83612945565b1515611b3a57600080fd5b601183908060018154018082558091505090600182039060005260206000200160009091929091909150555033600560006101000a81548173ffffffffffffffffffffffffffffffffffffffff021916908373ffffffffffffffffffffffffffffffffffffffff160217905550601a600081548092919060010191905055507f503dc19172b3253d27aea8f91be7740b366e99b7a21de85fba983b028ec6b652600a546040518082815260200191505060405180910390a1611cdc565b60006002601a54811515611c0757fe5b071415611cdb57611c1783612945565b1515611c2257600080fd5b600f83908060018154018082558091505090600182039060005260206000200160009091929091909150555033600460006101000a81548173ffffffffffffffffffffffffffffffffffffffff021916908373ffffffffffffffffffffffffffffffffffffffff160217905550601a600081548092919060010191905055507f503dc19172b3253d27aea8f91be7740b366e99b7a21de85fba983b028ec6b652600a546040518082815260200191505060405180910390a15b5b611ce4610cd7565b50611ced611910565b506001601a5414158015611d0f575060016002601a54811515611d0c57fe5b07145b15611e34576001821415611dcd57600f6001611d29610cd7565b03815481101515611d3657fe5b9060005260206000200154601081905550600b601054908060018154018082558091505090600182039060005260206000200160009091929091909150555060136000815480929190600101919050555060056013541415611dcc577f9499d0e8500fb4c00e4ec624e4602ad8e3dabaea533b62f96bb977de6155cbb4600a546040518082815260200191505060405180910390a15b5b6002821415611e2f57600f6001611de2610cd7565b03815481101515611def57fe5b90600052602060002001546010819055506001600c6000601054815260200190815260200160002060006101000a81548160ff0219169083151502179055505b611f68565b60006002601a54811515611e4457fe5b071415611f67576001821415611f045760116001611e60611910565b03815481101515611e6d57fe5b9060005260206000200154601281905550600d601054908060018154018082558091505090600182039060005260206000200160009091929091909150555060146000815480929190600101919050555060056014541415611f03577f9499d0e8500fb4c00e4ec624e4602ad8e3dabaea533b62f96bb977de6155cbb4600a546040518082815260200191505060405180910390a15b5b6002821415611f665760116001611f19611910565b03815481101515611f2657fe5b90600052602060002001546012819055506001600e6000601254815260200190815260200160002060006101000a81548160ff0219169083151502179055505b5b5b6078601c540142101515611f7f57611f7e6128f8565b5b611f876128f8565b5060008060146101000a81548160ff0219169083151502179055505050565b600260009054906101000a900473ffffffffffffffffffffffffffffffffffffffff1681565b6000600d80549050905090565b600e6020528060005260406000206000915054906101000a900460ff1681565b600060149054906101000a900460ff1615151561201557600080fd5b6001600060146101000a81548160ff021916908315150217905550600580600581111561203e57fe5b601b60009054906101000a900460ff16600581111561205957fe5b14151561206557600080fd5b5060008060146101000a81548160ff021916908315150217905550565b601a5481565b60135481565b601c5481565b600c6020528060005260406000206000915054906101000a900460ff1681565b60008060149054906101000a900460ff161515156120d157600080fd5b6001600060146101000a81548160ff02191690831515021790555060038060058111156120fa57fe5b601b60009054906101000a900460ff16600581111561211557fe5b14151561212157600080fd5b6005600b8054905014156121f45760009150600091505b600880549050600010156121ef576001600e600084815260200190815260200160002060006101000a81548160ff0219169083151502179055156121e257600460009054906101000a900473ffffffffffffffffffffffffffffffffffffffff16601560006101000a81548173ffffffffffffffffffffffffffffffffffffffff021916908373ffffffffffffffffffffffffffffffffffffffff16021790555081806001019250505b8180600101925050612138565b6123e2565b6005600d8054905014156122c357600091505b600980549050600010156122be576001600c600084815260200190815260200160002060006101000a81548160ff0219169083151502179055156122b157600560009054906101000a900473ffffffffffffffffffffffffffffffffffffffff16601660006101000a81548173ffffffffffffffffffffffffffffffffffffffff021916908373ffffffffffffffffffffffffffffffffffffffff16021790555081806001019250505b8180600101925050612207565b6123e1565b60006002601a548115156122d357fe5b071480156122e657506005600b80549050105b1561235357600460009054906101000a900473ffffffffffffffffffffffffffffffffffffffff16601760006101000a81548173ffffffffffffffffffffffffffffffffffffffff021916908373ffffffffffffffffffffffffffffffffffffffff1602179055506123e0565b60016002601a5481151561236357fe5b0714801561237657506005600d80549050105b156123df57600560009054906101000a900473ffffffffffffffffffffffffffffffffffffffff16601860006101000a81548173ffffffffffffffffffffffffffffffffffffffff021916908373ffffffffffffffffffffffffffffffffffffffff1602179055505b5b5b5b6123ea6128f8565b5060008060146101000a81548160ff02191690831515021790555050565b601b60009054906101000a900460ff1681565b60105481565b6000600173__CounterLib____________________________632ecff27f90916040518263ffffffff167c01000000000000000000000000000000000000000000000000000000000281526004018082815260200191505060206040518083038186803b15801561249157600080fd5b505af41580156124a5573d6000803e3d6000fd5b505050506040513d60208110156124bb57600080fd5b8101908080519060200190929190505050905090565b600460009054906101000a900473ffffffffffffffffffffffffffffffffffffffff1681565b600d8181548110151561250657fe5b906000526020600020016000915090505481565b601860009054906101000a900473ffffffffffffffffffffffffffffffffffffffff1681565b600060149054906101000a900460ff1615151561255c57600080fd5b6001600060146101000a81548160ff021916908315150217905550600080600581111561258557fe5b601b60009054906101000a900460ff1660058111156125a057fe5b1415156125ac57600080fd5b6000601a5414156127515733600460006101000a81548173ffffffffffffffffffffffffffffffffffffffff021916908373ffffffffffffffffffffffffffffffffffffffff1602179055506003600460009054906101000a900473ffffffffffffffffffffffffffffffffffffffff1690806001815401808255809150509060018203906000526020600020016000909192909190916101000a81548173ffffffffffffffffffffffffffffffffffffffff021916908373ffffffffffffffffffffffffffffffffffffffff16021790555050674563918244f400003414151561269657600080fd5b3460066000600260009054906101000a900473ffffffffffffffffffffffffffffffffffffffff1673ffffffffffffffffffffffffffffffffffffffff1673ffffffffffffffffffffffffffffffffffffffff16815260200190815260200160002060008282540192505081905550601a600081548092919060010191905055507f740902f405a3bc7abc01adc163fbbfbcb709113bbfa5079f4f010e58788370a3600a546040518082815260200191505060405180910390a15b6127596128f8565b5060008060146101000a81548160ff021916908315150217905550565b600a5481565b60118181548110151561278b57fe5b906000526020600020016000915090505481565b6000601454905090565b60125481565b60066020528060005260406000206000915090505481565b601660009054906101000a900473ffffffffffffffffffffffffffffffffffffffff1681565b6060600f80548060200260200160405190810160405280929190818152602001828054801561283b57602002820191906000526020600020905b815481526020019060010190808311612827575b5050505050905090565b6000809054906101000a900473ffffffffffffffffffffffffffffffffffffffff1673ffffffffffffffffffffffffffffffffffffffff163373ffffffffffffffffffffffffffffffffffffffff161415156128a057600080fd5b600760009054906101000a9050506128b781612960565b50565b6003818154811015156128c957fe5b906000526020600020016000915054906101000a900473ffffffffffffffffffffffffffffffffffffffff1681565b6001601b60009054906101000a900460ff16600581111561291557fe5b01600581111561292157fe5b601b60006101000a81548160ff0219169083600581111561293e57fe5b0217905550565b600060018210158015612959575060648211155b9050919050565b600073ffffffffffffffffffffffffffffffffffffffff168173ffffffffffffffffffffffffffffffffffffffff161415151561299c57600080fd5b8073ffffffffffffffffffffffffffffffffffffffff166000809054906101000a900473ffffffffffffffffffffffffffffffffffffffff1673ffffffffffffffffffffffffffffffffffffffff167f8be0079c531659141344cd1fd0a4f28419497f9722a3daafe3b4186f6b6457e060405160405180910390a3806000806101000a81548173ffffffffffffffffffffffffffffffffffffffff021916908373ffffffffffffffffffffffffffffffffffffffff16021790555050565b828054828255906000526020600020908101928215612a9b579160200282015b82811115612a9a578251829060ff16905591602001919060010190612a7a565b5b509050612aa89190612aac565b5090565b612ace91905b80821115612aca576000816000905550600101612ab2565b5090565b905600a165627a7a72305820e2b939c0fe3b8b013c5a330d84abc6f1b5684d54732066906d827e6dee3a5df40029",
  "source": "pragma solidity ^0.4.24;\n\n\n// contract BattleshipFactory {\n//     address[] public deployedBattleships;\n\n//     function createBattleship() public { \n        // address newBattleship = new Battleship();\n        // deployedBattleships.push(newBattleship);\n        // Battleship battleship = new Battleship();\n//     }\n\n//     function getDeployedBattleships() public view returns (address[]) {\n//         return deployedBattleships;\n//     }\n// }\n\npragma solidity ^0.4.24;\n\n// import \"openzeppelin-solidity/contracts/ownership/Ownable.sol\";\nimport \"./Ownable.sol\";\nimport \"./CounterLib.sol\";\nimport \"./ReentrancyGuard.sol\";\n\ncontract Battleship is Ownable, ReentrancyGuard {\n\n    /* @dev - demonstration of importing a library\n              I'm using turnCount as a counter currently\n    */\n    using CounterLib for CounterLib.Counter;\n\n    CounterLib.Counter counter;\n\n    function increment() public returns (uint) {\n        return counter.incremented();\n    }\n    \n    // ================================================================================\n    // GLOBAL VARIABLES\n    // ================================================================================\n    address public owner;\n    address[] public players;\n    address public player1;\n    address public player2;\n    mapping (address => uint) public balance;\n    \n    // @dev - for use with the 'circuit breaker' / `function toggleContractActive`\n    bool private stopped = false;\n\n    /* @dev - for use with commit / reveal pattern\n            - not yet implemented\n            - see Decision Pattern Decisions\n    */ \n    int[] internal p1Board;\n    int[] internal p2Board;\n\n    /* @dev - will be generated by the BattlershipFactory and\n              correspond to a deployedBattleship\n            - not implemented - see Design Pattern Decisions\n    */\n    uint public gameId;\n    \n    /* @dev - an entrance fee of 5 ETH is required\n            -  in the future, we may implement variable betting with a minium\n    */\n    // uint public minimumBet;\n\n    uint[] public p1Hits;\n    mapping(uint => bool) public p1Misses;\n    \n    uint[] public p2Hits;\n    mapping(uint => bool) public p2Misses;\n    \n    uint[] public p1LogOfGuesses;\n    uint public p1Position;\n\n    uint[] public p2LogOfGuesses;\n    uint public p2Position;\n    \n    uint public p1PositionsDiscovered;\n    uint public p2PositionsDiscovered;\n\n    address public badActor1;\n    address public badActor2;\n    \n    address public forfeit1;\n    address public forfeit2;\n\n    mapping(uint => Turn) turns;\n\n    // @dev decided to increment turnCount rather than use `Turns[] public turns;`\n    //      with Stage (per Solidity docs example rather than State), i.e.,\n    //      create a State `nextTurn` and then step through sequential turns with (a) functions,\n    //      e.g., `function turnOne() {}`, `function turnTwo() {}` or (b) a for loop - whose\n    //      gas cost increases linearly with the number of iterations\n    int public turnCount;  \n\n    struct Turn {\n        uint gameId;\n        uint guess;\n        uint result;\n        Stages stage;\n        mapping(uint => bool) p1Hits;\n        mapping(uint => bool) p1Misses;\n        mapping(uint => bool) p2Hits;\n        mapping(uint => bool) p2Misses;\n    }\n\n    // ================================================================================\n    // STATE \n    // ================================================================================\n\n    enum Stages { \n        startOfGame,            // @dev start game\n        acceptTheChallenge,     // @dev begin play\n        takeYourTurnAttacking,  // @dev take turns attacking - I currrently have one stage for 'turn';\n                                // @dev I may need to setup separate ones for each player\n        gameIsOver,             // @dev end of play\n        declareTheWinner,       // @dev declare winner and payout\n        withdrawTheMoney        // @dev owner and player(s) can withdraw money\n    }\n    \n    // This is the current stage.\n    Stages public stage = Stages.startOfGame;\n\n    uint public startTurn = now;\n\n    modifier atStage(Stages _stage) {\n        require(stage == _stage);\n        _;\n    }\n    \n    // @dev\n    // @param transitionNext    This modifier goes to the next stage after the function is done.\n    modifier transitionNext()\n    {\n        _;\n        nextStage();\n    }\n    \n    // @title Next Stage\n    // @param stage     This enables incrementing stages\n    function nextStage() internal {\n        stage = Stages(uint(stage) + 1);\n    }\n   \n    // @dev \n    // @param timedTransitions  The other stages transition by transaction\n    modifier timedTransitions() {\n        if (stage == Stages.takeYourTurnAttacking && now >= now + 2 minutes) {\n            nextStage();\n        }\n        _;\n    }\n\n    // ================================================================================\n    // EVENTS\n    // ================================================================================\n    event LogStartOfGame(uint gameId);\n    event LogAcceptTheChallenge(uint gameId);\n    event LogTakeYourTurnAttacking(uint gameId);\n    event LogGameIsOver(uint gameId);\n    event LogDeclareTheWinner(uint gameId);\n    event LogWithdrawTheMoney(uint gameId);\n    \n    // ================================================================================\n    // GAME \n    // ================================================================================\n\n    // @title Constructor \n    constructor() public {\n        // @dev constructor function. \n        // @param  owner       Sets contract owner\n        // @param  turnCount   Sets the initial turnCount to 0\n        // @param  minimumBet  Not implemented; contract currently requires an entrance fee of 5 ether.\n        //                     I.e., a bet is not a varaible amount established by the Player1\n        owner = msg.sender;\n        turnCount = 0;\n        gameId = 1;\n        // minimumBet = minimum;\n    }\n    \n    // @title Is A Valid Number\n    function isValidNumber(uint _guess) private pure returns (bool) {\n        // @dev    Range of valid ship positions; corresponds to cells in a table aka game board\n        // @param  _guess Expected table cell / game board position of a ship\n        // @return Bool, in or outside of range\n        return _guess >= 1 && _guess <= 100;\n    }\n    \n    // @title Get Length P1\n    function getLengthP1() public constant returns(uint length) {\n        // @dev    An array of Player1's successive guesses. A guess is the expected game board position of a ship\n        // @param  p1LogOfGuesses Array\n        // @return length         Length of the array, i.e., the number of guesses that Player1 has submitted\n        return p1LogOfGuesses.length;\n    }\n    \n    // @title Get Length P2\n    function getLengthP2() public constant returns(uint length) {\n        // @dev    An array of Player2's successive guesses. A guess is the expected game board position of a ship\n        // @param  p1LogOfGuesses Array\n        // @return length         Length of the array, i.e., the number of guesses that Player2 has submitted\n        return p2LogOfGuesses.length;\n    }\n    \n    // @title Get Hits P1\n    function getLengthHitsP1() public constant returns(uint length) {\n        // @dev    An array of Player1's successful guesses.  I.e., a 'hit' is a guess of Player1 that correctly \n        //         identifies the position of one of Player2's ships\n        // @param  getHitsP1  Array\n        // @return length     The number of successful guesses / hits, i.e., guesses == ship positions\n        return p1Hits.length;\n    }\n    \n    // @title Get Hits P2\n    function getLengthHitsP2() public constant returns(uint length) {\n        // @dev    An array of Player1's successful guesses.  I.e., a 'hit' is a guess of Player2 that correctly \n        //         identifies the position of one of Player2's ships\n        // @param  getHitsP2  Array\n        // @return length     The number of successful guesses / hits, i.e., guesses == ship positions\n        return p2Hits.length;\n    }\n\n    // @dev   Get Turn Count\n    // @dev   Not yet implemented\n    // @dev   Attempting a work around to get the count of a variable: turnCount\n    // @param turnCount is a turnCount of successive 'plays', i.e., turns, by Player1 and Player2\n    // function getTurnCount() public constant returns(int){\n    //     if (int(turnCount) == 0) {\n    //         return 0;\n    //     } else {\n    //         return int(turnCount);\n    //     }\n    // } \n    \n    // ================================================================================\n    // ACTION:  player 1 initiates a game by submitting the entry fee\n    // NOTE:    turncount is initialized to 0.  This is the first turn\n    // ================================================================================\n    \n    // @title Start Game\n    function startGame()\n        // @dev   Player1 starts a Battleship Game by submitting a 5 ether entrance fee\n        // @dev   The function is called once\n        // @param turnCount      Initialized to 0 by the constructor function.  Incremented after each player's turn.\n        // @param startOfGame    An event, initialized when the game starts\n        // @param transitionNext This modifier goes to the next stage after the function is done.\n        public\n        payable\n        nonReentrant\n        atStage(Stages.startOfGame)\n        transitionNext\n    {\n        if (turnCount == 0) {\n            player1 = msg.sender;\n            players.push(player1);\n            /* @dev pay entry fee to owner aka casino / house\n                    variable betting is not enabled, e.g., `require(msg.value > minimumBet);`\n            */\n            if (msg.value != 5 ether) revert();\n            // @dev submit board - conceal / reveal not yet implemented\n            // p1Board = [1,2,3,4,5];\n            balance[owner] += msg.value;\n            // @dev increment turnCount\n            turnCount++;\n            // @dev announce start of game\n            emit LogStartOfGame(gameId);\n        } \n    }\n    \n    // ================================================================================\n    // ACTION:  player 2 accepts the challenge by submitting their bet, and\n    //          takes the first shot by submitting a guess (aka board position)\n    // NOTE:    this is turn 2, so\n    //              player 1 is the 'odd' player [ modulo = 1 ]\n    //              player 2 is the 'even' player [ modulo = 0 ]\n    // ================================================================================\n    \n    // @title Accept The Challenge\n    function acceptChallenge(uint guess)\n        // @dev   Player2 accepts the challenge, submits their bet, and takes the first shot by submitting a guess aka board position\n        // @dev   The function is called once\n        // @dev   Player 2 accepts the challenge / pays the entry fee and attacks Player1's ships (during \n        // @dev   turnCount 2), so \n        // @dev   Player1 is the 'odd' player [ modulo = 1 ]\n        // @dev   Player2 is the 'even' player [ modulo = 0 ]\n        // @param turnCount           Initialized to 0 by the constructor function.  Incremented after each \n        //                            player's turn.\n        // @param acceptTheChallenge  An event, stage when the challenge is accepted \n        // @param transitionNext      This modifier goes to the next stage after the function is done.\n        public\n        payable\n        nonReentrant\n        atStage(Stages.acceptTheChallenge)\n        transitionNext\n    {\n        if (turnCount == 1) {\n            player2 = msg.sender;\n            if (msg.value != 5 ether) revert();\n            balance[owner] += msg.value;\n            // @dev submit board - conceal / reveal not yet implemented\n            p2Board = [21,22,23,24,25];\n            // @dev initiate an attack with a guess aka position\n            // @dev save a 'log' of attacks / positions \n            p2LogOfGuesses.push(guess);\n            // @dev increment turnCount\n            turnCount++;\n            // @dev announce acceptance of the challenge\n            emit LogAcceptTheChallenge(gameId);\n        }\n    }\n\n    \n    // ================================================================================\n    // ACTION:  send your guess to your opponent and send the result of their try to them\n    // NOTE:    Since their opponents board is 'hidden', only the player receiving \n    //          the hit can state whether a hit or miss occurred\n    //\n    //          hit = 1; miss = 2\n    //\n    //          IMPORTANTLY, this is designed to catch a cheater.  We assume players\n    //          will honestly return the result of an attack, i.e., correctly send a hit\n    //          or miss.  A dishonest player might mark a hit as a miss.  When their \n    //          board is revealed, we'll compare the shots marked misses against the\n    //          positions they submitted.\n    // ================================================================================\n    \n    // @title Take Turns Attacking\n    function takeTurnsAttacking(uint guess, uint result)\n        // @dev   The players take turns attacking (based upon the modulo of turnCount), i.e., submitting a board position \n        // @dev   aka guess to their opponent, until the game is declared over\n        // @param timedTransitions       Place a 2-minute time limit on each player's response.  A player not\n        // @parma                        responding to an attack within 2 minutes forfeits the game\n        // @param takeYourTurnAttacking  An event, stage where alternating attacks occur\n        // @param transitionNext         This modifier goes to the next stage after the function is done.\n        public\n        payable\n        nonReentrant\n        timedTransitions\n        atStage(Stages.takeYourTurnAttacking)\n        transitionNext\n    {   \n        // @dev player 2\n        if ((turnCount != 1) && (turnCount % 2 == 1)) { \n            // @dev start of 2-minute timer to catch forfeits\n            startTurn;                               \n            \n            // @dev make a new guess aka attack / position\n            require(isValidNumber(guess));\n            // @dev and save your guess\n            p2LogOfGuesses.push(guess);\n            // @dev send P1 the result of their attack\n            player2 = msg.sender;\n            // @dev increment turnCount\n            turnCount++;\n            // @dev announce opponent's turn\n            emit LogTakeYourTurnAttacking(gameId);\n        // @dev player 1\n        } else if (turnCount % 2 == 0) {\n            // @dev start of 2-minute timer to catch forfeits\n            startTurn;\n            // @dev make a new guess aka attack / position\n            require(isValidNumber(guess));\n            // @dev and save your guess\n            p1LogOfGuesses.push(guess);\n            // @dev send P2 the result of their attack\n            player1 = msg.sender;\n            // @dev increment turnCount\n            turnCount++;\n            // @dev announce opponent's turn\n            emit LogTakeYourTurnAttacking(gameId);\n        }\n\n    // ================================================================================\n    // NOTE:    Since Player1 knows if Player2's guess was a hit / miss, when sending \n    //          the 'result', Player1 logs the hit or miss using the\n    //          position sent by (and logged by) Player2\n    // ================================================================================\n        \n        getLengthP1();\n        getLengthP2();\n        \n        if ((turnCount != 1) && (turnCount % 2 == 1)) {         // player 2                              // to catch forfeits    \n            if (result == 1) { \n                p1Position = p1LogOfGuesses[getLengthP1()-1];\n                p1Hits.push(p1Position);\n                p1PositionsDiscovered++;\n                if (p1PositionsDiscovered == 5) {\n                    // @dev Player2 is a 'good sport', announces \"You win!\"\n                    emit LogGameIsOver(gameId);\n                }\n            }\n            if (result == 2) {\n                p1Position = p1LogOfGuesses[getLengthP1()-1];\n                p1Misses[p1Position] = true;\n            }\n        } else if (turnCount % 2 == 0) {                        // player 1\n            if (result == 1) {\n                p2Position = p2LogOfGuesses[getLengthP2()-1];\n                p2Hits.push(p1Position);\n                p2PositionsDiscovered++;\n                if (p2PositionsDiscovered == 5) {\n                    // @dev Player1 is a 'good sport', announces \"You win!\"\n                    emit LogGameIsOver(gameId);\n                }\n            }\n            if (result == 2) {\n                p2Position = p2LogOfGuesses[getLengthP2()-1];\n                p2Misses[p2Position] = true;\n            }\n        } if (now >= startTurn + 2 minutes) {\n            nextStage();\n        } \n    }\n    \n    // @title Get Player1's Log of guesses\n    function getP1LogOfGuesses() public view returns(uint[]) {\n        return p1LogOfGuesses;\n    }\n    \n    // @title Get Player2's Log of Guesses\n    function getP2LogOfGuesses() public view returns(uint[]) {\n        return p2LogOfGuesses;\n    }\n    \n    // @title Get Player1's Hits\n    function getP1Hits() public view returns(uint) {\n        return p1PositionsDiscovered;\n    }\n    \n    // @title Get Player2's Hits\n    function getP2Hits() public view returns(uint) {\n        return p2PositionsDiscovered;\n    }\n    \n    // ================================================================================\n    // ACTION:  game ends when:\n    //          1. a player has 5 hits, i.e., sinks all of their opponent's ships\n    //          2. a player walks away from the game, i.e., does not respond to an\n    //             attack in the alloted 2 minutes\n    // NOTE:    Payout:\n    //          1. Cheating: \n    //              (a) if one player cheats, they lose their funds. \n    //                  - owner gets to keep 2 ether, \n    //                  - winning player gets 8 ether\n    //              (b) if both players cheat, the owner keeps the entire pot\n    //          2. Sore loser:\n    //              We create an incentive to complete the game:\n    //               (a) player abandoning game rather than announcing win gets 0\n    //               (b) owner gets to keep 2 ether, \n    //               (c) winning player gets 8 ether\n    //          3. Good sport:\n    //              Losing player announces winning hit to their opponent\n    //              (a) owner gets to keep 2 ether,\n    //              (b) losing player gets 2 ether,\n    //              (c) winning player gets 6 ether.\n    // ================================================================================              \n    \n    // @title Game Over\n    function gameOver() \n        // @dev   game is over; however, a winner isn't announced until the 'cheat check' is complete\n        // @parma gameIsOver        An event, stage reached when one player has hit all their opponent's ships or\n        //                          a forfeit occurs\n        // @param transitionNext    This modifier goes to the next stage after the function is done.\n        public \n        payable\n        nonReentrant\n        atStage(Stages.gameIsOver)\n        transitionNext\n    {                                     \n        // @dev reveal boards\n        if (p1Hits.length == 5) {\n            // @dev reveal of P1's board\n            // @dev compare to misses P1 reported to P2\n            uint i = 0;\n            for (i = 0; 0 < p1Board.length; i++) {\n                if (p2Misses[i] = true) {\n                    badActor1 = player1;    // p1 cheated by calling a hit a miss\n                    i++;\n                } \n            }\n        } else if (p2Hits.length == 5) {   \n            // @dev reveal of P2's board\n            // @dev compare to misses P2 reported to P1\n            for (i = 0; 0 < p2Board.length; i++) {\n                if (p1Misses[i] = true) {\n                    badActor2 = player2;    // p2 cheated by calling a hit a miss\n                    i++;\n                } \n            }     \n             \n        // @dev a player forfeits if they do not respond to an attack within 2 minutes\n        // @dev it implies (a) it's still the prior turn / opponent's turn because turnCount hasn't incremented \n        // @dev it implies the winning player will have less hits than the number required to win\n        } else if ((turnCount % 2 == 0) && (p1Hits.length < 5)) {\n                forfeit1 = player1;\n            } else if ((turnCount % 2 == 1) && (p2Hits.length < 5)) {\n                forfeit2 = player2;\n            }\n        } \n    \n    // @title Declare Winner\n    function declareWinner() \n        // @dev - this function divides the entrance fees\n        // @parma declareTheWinner  An event, stage reached when a player has, tentatively, won.\n        public \n        payable\n        nonReentrant\n        atStage(Stages.declareTheWinner)\n    {   \n        // @ dev can test for a null address with 0\n        if ((badActor1 == 0) && (badActor2 == 0)) {  \n            // @dev Player2 notified Player1 of the winning hit\n            // @dev so Player2 earns the 'good sport' incentive\n            if (p1Hits.length == 5) {\n                balance[owner] -= 8;\n                balance[player1] += 6;\n                balance[player2] += 2;\n                // @ dev announce the Winner\n                emit LogDeclareTheWinner(gameId);\n            // @dev Player1 notified Player2 of the winning hit\n            // @dev so Player1 earns the 'good sport' incentive\n            } else if (p2Hits.length == 5) { \n                balance[owner] -= 8;\n                balance[player2] += 6;\n                balance[player1] += 2;\n                // @ dev announce the Winner\n                emit LogDeclareTheWinner(gameId);\n            // @dev Player1 forfeits\n            } if (forfeit1 != 0) {\n                balance[owner] -= 8;\n                balance[player2] += 8;\n                // @ dev announce the Winner\n                emit LogDeclareTheWinner(gameId);\n            // @dev Player2 forfeits\n            } if (forfeit2 != 0) {\n                balance[owner] -= 8;\n                balance[player2] += 8;\n                // @ dev announce the Winner\n                emit LogDeclareTheWinner(gameId);\n            // @dev if both Player1 and Player2 cheat, the owner keeps the entrance fees\n            } if ((badActor1 != 0) && (badActor2 != 0)) {\n                // @ dev announce the Winner, here, none\n                emit LogDeclareTheWinner(gameId);\n            }                                          \n        }\n    \n    }\n\n    // @title Withdraw the Money\n    function withdrawMoney() \n        external\n        payable\n        nonReentrant\n        atStage(Stages.withdrawTheMoney)\n        {\n        /* @dev - using pull rather than push pattern\n                  owner and player(s) can withdraw funds\n        */\n        /* @dev - to implement\n                - only the owner or a player of the current gameId (which is\n                  not yet implemented) can withdraw funds\n        */\n        /* @dev - code is throwing an error (shadowing mapping above),\n                  so commented out for now\n                - \n\n        uint balance = balance[msg.sender];\n        balance[msg.sender] = 0;\n        msg.sender.transfer[balance];\n        \n        */\n        \n\n    }\n\n    // ================================================================================\n    // Fallback Function \n    // ================================================================================\n\n    // @title 'Fallback function'\n    /* @dev \n        allows contract to accept ETH from external parties\n        however, I'm setting it up to revert();\n        per Solidity docs:\n            bad form:  `function () public payable {}`\n            good form - however, note the two unnamed functions\n                function() { throw; }  // deprecated\n                function externalDeposit() external { balance[msg.sender] += msg.value; }\n                function() { emit LogDepositReceived(msg.sender); }\n            - which @questions / course support said was misleading\n        so, we'll stick with the following \n            - despite the ability of external parties to send money to the \n              contract using selfdestruct and / or mine money to the contract\n    */\n    function () public payable {\n        revert();\n    }\n\n    // ================================================================================\n    // Circuit Breaker / Emergency Stop\n    // ================================================================================\n\n    // @title Toggle Contract Active\n    /* @dev - since throw is deprecated, we won't use the code illustrated in \n              the Solidity docs for a Circuit Breaker):\n                modifier isAdmin() {\n                  if(msg.sender != owner) {\n                    throw;\n                  }\n                  _;\n                } \n            - we'll use this code which also throws and reverts the state\n            - see `https://solidity.readthedocs.io/en/develop/control-structures.html?highlight=require#error-handling-assert-require-revert-and-exceptions`     \n    */\n    // @dev - using onlyOwner to restrict calls to owner\n    function toggleContractActive() onlyOwner public\n        // @dev - Circuit Breaker \n        {\n            stopped = !stopped;\n        }\n\n    modifier stopInEmergency { \n        if (!stopped)\n        {}\n        _;\n    }\n    \n    modifier onlyInEmergency { if (stopped)\n        {}\n        _;\n    }\n\n    // @title Withdraw\n    /* @dev - presumably, the owner was hacked, so he / she halts the contract, moves the funds, \n              then renounces ownership and transfers ownership to a new, presumably safe, owner\n    */\n    function internalWithdraw() view internal onlyInEmergency {\n      // @dev - the owner moves funds to a new account\n      /* @notice -  commented out because it's causing a warning re\n                    shadowing mapping - next project!\n                 -  had to add `view` to get the contract to compile because it has no code\n      uint balance = balance[msg.sender];\n      balance[msg.sender] = 0;\n      msg.sender.transfer[balance];\n      */\n    } \n\n    function renounceOwnership() public onlyOwner stopInEmergency {\n      emit OwnershipRenounced(owner);\n        owner = address(0);\n      }\n    \n    function transferOwnership(address _newOwner) public onlyOwner onlyInEmergency {\n      _transferOwnership(_newOwner);\n    }\n    \n    // ================================================================================\n    // Selfdestruct\n    // ================================================================================\n    \n    // @title Kill\n    function kill() public {\n        // @dev - standard kill() function to recover funds\n        if (msg.sender == owner)\n        selfdestruct(owner);\n    }\n\n\n  // ================================================================================\n  // Helper functions for testing\n  // ================================================================================\n\n    // @title Get Contract Address\n    function getContractAddress() constant public returns (address) {\n        // @dev - for testing purposes\n        return this;\n    }\n    \n    //@title Get Contract Balance\n    function getContractBalance() constant public returns (uint) {\n        // @dev - for testing purposes\n        return address(this).balance;\n    }\n    \n    // @title Get Player1\n    function getPlayer1() public view returns(address) {\n        // @dev - for testing purposes\n        return player1;\n    }\n    \n    // @title Get Player1 \n    function getPlayer2() public view returns(address) {\n        // @dev - for testing purposes\n        return player2;\n    }\n}",
  "sourcePath": "/home/dougharman/Battleship-base/contracts/Battleship.sol",
  "compiler": {
    "name": "solc",
    "version": "0.4.24+commit.e67f0147.Emscripten.clang"
  },
  "schemaVersion": "2.0.1",
  "updatedAt": "2018-08-27T16:31:13.747Z"
}