{
  "contractName": "Battleship",
  "abi": [
    {
      "constant": true,
      "inputs": [
        {
          "name": "",
          "type": "uint256"
        }
      ],
      "name": "p1LogOfGuesses",
      "outputs": [
        {
          "name": "",
          "type": "uint256"
        }
      ],
      "payable": false,
      "stateMutability": "view",
      "type": "function"
    },
    {
      "constant": true,
      "inputs": [],
      "name": "badActor1",
      "outputs": [
        {
          "name": "",
          "type": "address"
        }
      ],
      "payable": false,
      "stateMutability": "view",
      "type": "function"
    },
    {
      "constant": true,
      "inputs": [
        {
          "name": "",
          "type": "uint256"
        }
      ],
      "name": "gameId",
      "outputs": [
        {
          "name": "",
          "type": "uint256"
        }
      ],
      "payable": false,
      "stateMutability": "view",
      "type": "function"
    },
    {
      "constant": true,
      "inputs": [
        {
          "name": "",
          "type": "uint256"
        }
      ],
      "name": "p1Hits",
      "outputs": [
        {
          "name": "",
          "type": "uint256"
        }
      ],
      "payable": false,
      "stateMutability": "view",
      "type": "function"
    },
    {
      "constant": true,
      "inputs": [
        {
          "name": "",
          "type": "address"
        }
      ],
      "name": "balances",
      "outputs": [
        {
          "name": "",
          "type": "uint256"
        }
      ],
      "payable": false,
      "stateMutability": "view",
      "type": "function"
    },
    {
      "constant": true,
      "inputs": [],
      "name": "forfeit1",
      "outputs": [
        {
          "name": "",
          "type": "address"
        }
      ],
      "payable": false,
      "stateMutability": "view",
      "type": "function"
    },
    {
      "constant": true,
      "inputs": [],
      "name": "p2SuccessfulGuesses",
      "outputs": [
        {
          "name": "",
          "type": "uint256"
        }
      ],
      "payable": false,
      "stateMutability": "view",
      "type": "function"
    },
    {
      "constant": true,
      "inputs": [],
      "name": "player2",
      "outputs": [
        {
          "name": "",
          "type": "address"
        }
      ],
      "payable": false,
      "stateMutability": "view",
      "type": "function"
    },
    {
      "constant": true,
      "inputs": [],
      "name": "p1SuccessfulGuesses",
      "outputs": [
        {
          "name": "",
          "type": "uint256"
        }
      ],
      "payable": false,
      "stateMutability": "view",
      "type": "function"
    },
    {
      "constant": true,
      "inputs": [],
      "name": "owner",
      "outputs": [
        {
          "name": "",
          "type": "address"
        }
      ],
      "payable": false,
      "stateMutability": "view",
      "type": "function"
    },
    {
      "constant": true,
      "inputs": [
        {
          "name": "",
          "type": "uint256"
        }
      ],
      "name": "p2Misses",
      "outputs": [
        {
          "name": "",
          "type": "bool"
        }
      ],
      "payable": false,
      "stateMutability": "view",
      "type": "function"
    },
    {
      "constant": true,
      "inputs": [],
      "name": "turnCount",
      "outputs": [
        {
          "name": "",
          "type": "uint256"
        }
      ],
      "payable": false,
      "stateMutability": "view",
      "type": "function"
    },
    {
      "constant": true,
      "inputs": [],
      "name": "startTurn",
      "outputs": [
        {
          "name": "",
          "type": "uint256"
        }
      ],
      "payable": false,
      "stateMutability": "view",
      "type": "function"
    },
    {
      "constant": true,
      "inputs": [
        {
          "name": "",
          "type": "uint256"
        }
      ],
      "name": "p1Misses",
      "outputs": [
        {
          "name": "",
          "type": "bool"
        }
      ],
      "payable": false,
      "stateMutability": "view",
      "type": "function"
    },
    {
      "constant": true,
      "inputs": [],
      "name": "stage",
      "outputs": [
        {
          "name": "",
          "type": "uint8"
        }
      ],
      "payable": false,
      "stateMutability": "view",
      "type": "function"
    },
    {
      "constant": true,
      "inputs": [],
      "name": "minimumBet",
      "outputs": [
        {
          "name": "",
          "type": "uint256"
        }
      ],
      "payable": false,
      "stateMutability": "view",
      "type": "function"
    },
    {
      "constant": true,
      "inputs": [],
      "name": "p1Position",
      "outputs": [
        {
          "name": "",
          "type": "uint256"
        }
      ],
      "payable": false,
      "stateMutability": "view",
      "type": "function"
    },
    {
      "constant": true,
      "inputs": [],
      "name": "player1",
      "outputs": [
        {
          "name": "",
          "type": "address"
        }
      ],
      "payable": false,
      "stateMutability": "view",
      "type": "function"
    },
    {
      "constant": true,
      "inputs": [
        {
          "name": "",
          "type": "uint256"
        }
      ],
      "name": "p2Hits",
      "outputs": [
        {
          "name": "",
          "type": "uint256"
        }
      ],
      "payable": false,
      "stateMutability": "view",
      "type": "function"
    },
    {
      "constant": true,
      "inputs": [],
      "name": "forfeit2",
      "outputs": [
        {
          "name": "",
          "type": "address"
        }
      ],
      "payable": false,
      "stateMutability": "view",
      "type": "function"
    },
    {
      "constant": true,
      "inputs": [
        {
          "name": "",
          "type": "uint256"
        }
      ],
      "name": "p2LogOfGuesses",
      "outputs": [
        {
          "name": "",
          "type": "uint256"
        }
      ],
      "payable": false,
      "stateMutability": "view",
      "type": "function"
    },
    {
      "constant": true,
      "inputs": [],
      "name": "p2Position",
      "outputs": [
        {
          "name": "",
          "type": "uint256"
        }
      ],
      "payable": false,
      "stateMutability": "view",
      "type": "function"
    },
    {
      "constant": true,
      "inputs": [],
      "name": "badActor2",
      "outputs": [
        {
          "name": "",
          "type": "address"
        }
      ],
      "payable": false,
      "stateMutability": "view",
      "type": "function"
    },
    {
      "inputs": [],
      "payable": true,
      "stateMutability": "payable",
      "type": "constructor"
    },
    {
      "anonymous": false,
      "inputs": [
        {
          "indexed": false,
          "name": "turnCount",
          "type": "uint256"
        }
      ],
      "name": "StartOfGame",
      "type": "event"
    },
    {
      "anonymous": false,
      "inputs": [
        {
          "indexed": false,
          "name": "turnCount",
          "type": "uint256"
        }
      ],
      "name": "AcceptTheChallenge",
      "type": "event"
    },
    {
      "anonymous": false,
      "inputs": [
        {
          "indexed": false,
          "name": "turnCount",
          "type": "uint256"
        }
      ],
      "name": "TakeTurnsAttacking",
      "type": "event"
    },
    {
      "anonymous": false,
      "inputs": [
        {
          "indexed": false,
          "name": "_from",
          "type": "address"
        },
        {
          "indexed": false,
          "name": "_string",
          "type": "string"
        }
      ],
      "name": "GameOver",
      "type": "event"
    },
    {
      "anonymous": false,
      "inputs": [],
      "name": "DeclareWinner",
      "type": "event"
    },
    {
      "constant": true,
      "inputs": [],
      "name": "getLengthP1",
      "outputs": [
        {
          "name": "length",
          "type": "uint256"
        }
      ],
      "payable": false,
      "stateMutability": "view",
      "type": "function"
    },
    {
      "constant": true,
      "inputs": [],
      "name": "getLengthP2",
      "outputs": [
        {
          "name": "length",
          "type": "uint256"
        }
      ],
      "payable": false,
      "stateMutability": "view",
      "type": "function"
    },
    {
      "constant": true,
      "inputs": [],
      "name": "getHitsP1",
      "outputs": [
        {
          "name": "length",
          "type": "uint256"
        }
      ],
      "payable": false,
      "stateMutability": "view",
      "type": "function"
    },
    {
      "constant": true,
      "inputs": [],
      "name": "getHitsP2",
      "outputs": [
        {
          "name": "length",
          "type": "uint256"
        }
      ],
      "payable": false,
      "stateMutability": "view",
      "type": "function"
    },
    {
      "constant": false,
      "inputs": [],
      "name": "startGame",
      "outputs": [],
      "payable": true,
      "stateMutability": "payable",
      "type": "function"
    },
    {
      "constant": false,
      "inputs": [
        {
          "name": "guess",
          "type": "uint256"
        }
      ],
      "name": "acceptChallenge",
      "outputs": [],
      "payable": true,
      "stateMutability": "payable",
      "type": "function"
    },
    {
      "constant": false,
      "inputs": [
        {
          "name": "guess",
          "type": "uint256"
        },
        {
          "name": "result",
          "type": "uint256"
        }
      ],
      "name": "takeTurnsAttacking",
      "outputs": [],
      "payable": true,
      "stateMutability": "payable",
      "type": "function"
    },
    {
      "constant": true,
      "inputs": [],
      "name": "getP1LogOfGuesses",
      "outputs": [
        {
          "name": "",
          "type": "uint256[]"
        }
      ],
      "payable": false,
      "stateMutability": "view",
      "type": "function"
    },
    {
      "constant": true,
      "inputs": [],
      "name": "getP2LogOfGuesses",
      "outputs": [
        {
          "name": "",
          "type": "uint256[]"
        }
      ],
      "payable": false,
      "stateMutability": "view",
      "type": "function"
    },
    {
      "constant": true,
      "inputs": [],
      "name": "getP1Hits",
      "outputs": [
        {
          "name": "",
          "type": "uint256"
        }
      ],
      "payable": false,
      "stateMutability": "view",
      "type": "function"
    },
    {
      "constant": true,
      "inputs": [],
      "name": "getP2Hits",
      "outputs": [
        {
          "name": "",
          "type": "uint256"
        }
      ],
      "payable": false,
      "stateMutability": "view",
      "type": "function"
    },
    {
      "constant": false,
      "inputs": [],
      "name": "gameOver",
      "outputs": [],
      "payable": true,
      "stateMutability": "payable",
      "type": "function"
    },
    {
      "constant": false,
      "inputs": [],
      "name": "declareWinner",
      "outputs": [],
      "payable": true,
      "stateMutability": "payable",
      "type": "function"
    }
  ],
  "bytecode": "0x60806040526000601860006101000a81548160ff0219169083600481111561002357fe5b021790555042601955336000806101000a81548173ffffffffffffffffffffffffffffffffffffffff021916908373ffffffffffffffffffffffffffffffffffffffff1602179055506000600360008060009054906101000a900473ffffffffffffffffffffffffffffffffffffffff1673ffffffffffffffffffffffffffffffffffffffff1673ffffffffffffffffffffffffffffffffffffffff168152602001908152602001600020819055506000601781905550612014806100e96000396000f3006080604052600436106101c2576000357c0100000000000000000000000000000000000000000000000000000000900463ffffffff168063081d5aa5146101c75780630c54000f146102085780630d94ab8c146102335780630fce20191461028a57806314034bd2146102b557806315133994146102bf578063168aa23a146102ea5780631b0fc1061461032b5780631f80f4e31461034b5780631f99d37c1461037657806327e235e3146103b7578063344a1c9d1461040e57806334b2eda91461047a578063511bb65d146104d157806359a5f12d146104fc5780635d6450b6146105535780636d19bb931461057e5780638538dfed146105a95780638da5cb5b146105d357806393c6be491461062a578063ae4ccdf31461066f578063b250af261461069a578063b88a1dbb146106c5578063bdb337d11461070a578063c040e6b814610714578063c38a8afd1461074d578063ce1fbaea14610778578063d30895e4146107a3578063d5ad7a8b146107fa578063d5c019a51461083b578063d65ab5f214610892578063d995b36b1461089c578063da5c3541146108dd578063e19338b314610908578063e8e56a8814610933578063e9cd82221461098a575b600080fd5b3480156101d357600080fd5b506101f2600480360381019080803590602001909291905050506109f6565b6040518082815260200191505060405180910390f35b34801561021457600080fd5b5061021d610a19565b6040518082815260200191505060405180910390f35b34801561023f57600080fd5b50610248610a26565b604051808273ffffffffffffffffffffffffffffffffffffffff1673ffffffffffffffffffffffffffffffffffffffff16815260200191505060405180910390f35b34801561029657600080fd5b5061029f610a4c565b6040518082815260200191505060405180910390f35b6102bd610a59565b005b3480156102cb57600080fd5b506102d461109f565b6040518082815260200191505060405180910390f35b3480156102f657600080fd5b50610315600480360381019080803590602001909291905050506110ac565b6040518082815260200191505060405180910390f35b610349600480360381019080803590602001909291905050506110cf565b005b34801561035757600080fd5b50610360611258565b6040518082815260200191505060405180910390f35b34801561038257600080fd5b506103a160048036038101908080359060200190929190505050611262565b6040518082815260200191505060405180910390f35b3480156103c357600080fd5b506103f8600480360381019080803573ffffffffffffffffffffffffffffffffffffffff169060200190929190505050611285565b6040518082815260200191505060405180910390f35b34801561041a57600080fd5b5061042361129d565b6040518080602001828103825283818151815260200191508051906020019060200280838360005b8381101561046657808201518184015260208101905061044b565b505050509050019250505060405180910390f35b34801561048657600080fd5b5061048f6112f5565b604051808273ffffffffffffffffffffffffffffffffffffffff1673ffffffffffffffffffffffffffffffffffffffff16815260200191505060405180910390f35b3480156104dd57600080fd5b506104e661131b565b6040518082815260200191505060405180910390f35b34801561050857600080fd5b50610511611321565b604051808273ffffffffffffffffffffffffffffffffffffffff1673ffffffffffffffffffffffffffffffffffffffff16815260200191505060405180910390f35b34801561055f57600080fd5b50610568611347565b6040518082815260200191505060405180910390f35b34801561058a57600080fd5b50610593611354565b6040518082815260200191505060405180910390f35b6105d1600480360381019080803590602001909291908035906020019092919050505061135a565b005b3480156105df57600080fd5b506105e86118f9565b604051808273ffffffffffffffffffffffffffffffffffffffff1673ffffffffffffffffffffffffffffffffffffffff16815260200191505060405180910390f35b34801561063657600080fd5b506106556004803603810190808035906020019092919050505061191e565b604051808215151515815260200191505060405180910390f35b34801561067b57600080fd5b5061068461193e565b6040518082815260200191505060405180910390f35b3480156106a657600080fd5b506106af611944565b6040518082815260200191505060405180910390f35b3480156106d157600080fd5b506106f06004803603810190808035906020019092919050505061194a565b604051808215151515815260200191505060405180910390f35b61071261196a565b005b34801561072057600080fd5b50610729611c6e565b6040518082600481111561073957fe5b60ff16815260200191505060405180910390f35b34801561075957600080fd5b50610762611c81565b6040518082815260200191505060405180910390f35b34801561078457600080fd5b5061078d611c87565b6040518082815260200191505060405180910390f35b3480156107af57600080fd5b506107b8611c8d565b604051808273ffffffffffffffffffffffffffffffffffffffff1673ffffffffffffffffffffffffffffffffffffffff16815260200191505060405180910390f35b34801561080657600080fd5b5061082560048036038101908080359060200190929190505050611cb3565b6040518082815260200191505060405180910390f35b34801561084757600080fd5b50610850611cd6565b604051808273ffffffffffffffffffffffffffffffffffffffff1673ffffffffffffffffffffffffffffffffffffffff16815260200191505060405180910390f35b61089a611cfc565b005b3480156108a857600080fd5b506108c760048036038101908080359060200190929190505050611e58565b6040518082815260200191505060405180910390f35b3480156108e957600080fd5b506108f2611e7b565b6040518082815260200191505060405180910390f35b34801561091457600080fd5b5061091d611e85565b6040518082815260200191505060405180910390f35b34801561093f57600080fd5b50610948611e8b565b604051808273ffffffffffffffffffffffffffffffffffffffff1673ffffffffffffffffffffffffffffffffffffffff16815260200191505060405180910390f35b34801561099657600080fd5b5061099f611eb1565b6040518080602001828103825283818151815260200191508051906020019060200280838360005b838110156109e25780820151818401526020810190506109c7565b505050509050019250505060405180910390f35b600c81815481101515610a0557fe5b906000526020600020016000915090505481565b6000600c80549050905090565b601260009054906101000a900473ffffffffffffffffffffffffffffffffffffffff1681565b6000600a80549050905090565b6004806004811115610a6757fe5b601860009054906101000a900460ff166004811115610a8257fe5b141515610a8e57600080fd5b6000601260009054906101000a900473ffffffffffffffffffffffffffffffffffffffff1673ffffffffffffffffffffffffffffffffffffffff16148015610b0e57506000601360009054906101000a900473ffffffffffffffffffffffffffffffffffffffff1673ffffffffffffffffffffffffffffffffffffffff16145b1561109c5760056008805490501415610c75576008600360008060009054906101000a900473ffffffffffffffffffffffffffffffffffffffff1673ffffffffffffffffffffffffffffffffffffffff1673ffffffffffffffffffffffffffffffffffffffff16815260200190815260200160002060008282540392505081905550600660036000600160009054906101000a900473ffffffffffffffffffffffffffffffffffffffff1673ffffffffffffffffffffffffffffffffffffffff1673ffffffffffffffffffffffffffffffffffffffff16815260200190815260200160002060008282540192505081905550600260036000600260009054906101000a900473ffffffffffffffffffffffffffffffffffffffff1673ffffffffffffffffffffffffffffffffffffffff1673ffffffffffffffffffffffffffffffffffffffff16815260200190815260200160002060008282540192505081905550610dd4565b6005600a805490501415610dd3576008600360008060009054906101000a900473ffffffffffffffffffffffffffffffffffffffff1673ffffffffffffffffffffffffffffffffffffffff1673ffffffffffffffffffffffffffffffffffffffff16815260200190815260200160002060008282540392505081905550600660036000600260009054906101000a900473ffffffffffffffffffffffffffffffffffffffff1673ffffffffffffffffffffffffffffffffffffffff1673ffffffffffffffffffffffffffffffffffffffff16815260200190815260200160002060008282540192505081905550600260036000600160009054906101000a900473ffffffffffffffffffffffffffffffffffffffff1673ffffffffffffffffffffffffffffffffffffffff1673ffffffffffffffffffffffffffffffffffffffff168152602001908152602001600020600082825401925050819055505b5b6000601460009054906101000a900473ffffffffffffffffffffffffffffffffffffffff1673ffffffffffffffffffffffffffffffffffffffff16141515610ef6576008600360008060009054906101000a900473ffffffffffffffffffffffffffffffffffffffff1673ffffffffffffffffffffffffffffffffffffffff1673ffffffffffffffffffffffffffffffffffffffff16815260200190815260200160002060008282540392505081905550600860036000600260009054906101000a900473ffffffffffffffffffffffffffffffffffffffff1673ffffffffffffffffffffffffffffffffffffffff1673ffffffffffffffffffffffffffffffffffffffff168152602001908152602001600020600082825401925050819055505b6000601560009054906101000a900473ffffffffffffffffffffffffffffffffffffffff1673ffffffffffffffffffffffffffffffffffffffff16141515611018576008600360008060009054906101000a900473ffffffffffffffffffffffffffffffffffffffff1673ffffffffffffffffffffffffffffffffffffffff1673ffffffffffffffffffffffffffffffffffffffff16815260200190815260200160002060008282540392505081905550600860036000600260009054906101000a900473ffffffffffffffffffffffffffffffffffffffff1673ffffffffffffffffffffffffffffffffffffffff1673ffffffffffffffffffffffffffffffffffffffff168152602001908152602001600020600082825401925050819055505b6000601260009054906101000a900473ffffffffffffffffffffffffffffffffffffffff1673ffffffffffffffffffffffffffffffffffffffff161415801561109a57506000601360009054906101000a900473ffffffffffffffffffffffffffffffffffffffff1673ffffffffffffffffffffffffffffffffffffffff1614155b505b50565b6000600880549050905090565b6006818154811015156110bb57fe5b906000526020600020016000915090505481565b60018060048111156110dd57fe5b601860009054906101000a900460ff1660048111156110f857fe5b14151561110457600080fd5b6001601754141561124c5733600260006101000a81548173ffffffffffffffffffffffffffffffffffffffff021916908373ffffffffffffffffffffffffffffffffffffffff160217905550674563918244f400003414151561116657600080fd5b34600360008060009054906101000a900473ffffffffffffffffffffffffffffffffffffffff1673ffffffffffffffffffffffffffffffffffffffff1673ffffffffffffffffffffffffffffffffffffffff16815260200190815260200160002060008282540192505081905550606060405190810160405280601560ff168152602001601660ff168152602001601760ff16815250600590600361120c929190611f71565b50600e8290806001815401808255809150509060018203906000526020600020016000909192909190915055506017600081548092919060010191905055505b611254611f09565b5050565b6000601054905090565b60088181548110151561127157fe5b906000526020600020016000915090505481565b60036020528060005260406000206000915090505481565b6060600e8054806020026020016040519081016040528092919081815260200182805480156112eb57602002820191906000526020600020905b8154815260200190600101908083116112d7575b5050505050905090565b601460009054906101000a900473ffffffffffffffffffffffffffffffffffffffff1681565b60115481565b600260009054906101000a900473ffffffffffffffffffffffffffffffffffffffff1681565b6000600e80549050905090565b60105481565b6002600481111561136757fe5b601860009054906101000a900460ff16600481111561138257fe5b1480156113925750607842014210155b156113a05761139f611f09565b5b60028060048111156113ae57fe5b601860009054906101000a900460ff1660048111156113c957fe5b1415156113d557600080fd5b6001601754141580156113f65750600160026017548115156113f357fe5b06145b156114935761140483611f56565b151561140f57600080fd5b600e83908060018154018082558091505090600182039060005260206000200160009091929091909150555033600260006101000a81548173ffffffffffffffffffffffffffffffffffffffff021916908373ffffffffffffffffffffffffffffffffffffffff16021790555060176000815480929190600101919050555061153f565b600060026017548115156114a357fe5b06141561153e576114b383611f56565b15156114be57600080fd5b600c83908060018154018082558091505090600182039060005260206000200160009091929091909150555033600160006101000a81548173ffffffffffffffffffffffffffffffffffffffff021916908373ffffffffffffffffffffffffffffffffffffffff1602179055506017600081548092919060010191905055505b5b611547610a19565b50611550611347565b5060016017541415801561157257506001600260175481151561156f57fe5b06145b1561171c5760018214156116b557600c600161158c610a19565b0381548110151561159957fe5b9060005260206000200154600d819055506008600d549080600181540180825580915050906001820390600052602060002001600090919290919091505550601060008154809291906001019190505550600560105414156116b4577faf45c5f1569bf9d80201d0a9c7c3986f069713e12bae02007e3e04710cd139ec600260009054906101000a900473ffffffffffffffffffffffffffffffffffffffff16604051808273ffffffffffffffffffffffffffffffffffffffff1673ffffffffffffffffffffffffffffffffffffffff16815260200180602001828103825260088152602001807f596f752077696e210000000000000000000000000000000000000000000000008152506020019250505060405180910390a15b5b600282141561171757600c60016116ca610a19565b038154811015156116d757fe5b9060005260206000200154600d81905550600160096000600d54815260200190815260200160002060006101000a81548160ff0219169083151502179055505b6118d5565b6000600260175481151561172c57fe5b0614156118d457600182141561187157600e6001611748611347565b0381548110151561175557fe5b9060005260206000200154600f81905550600a600d54908060018154018082558091505090600182039060005260206000200160009091929091909150555060116000815480929190600101919050555060056011541415611870577faf45c5f1569bf9d80201d0a9c7c3986f069713e12bae02007e3e04710cd139ec600160009054906101000a900473ffffffffffffffffffffffffffffffffffffffff16604051808273ffffffffffffffffffffffffffffffffffffffff1673ffffffffffffffffffffffffffffffffffffffff16815260200180602001828103825260088152602001807f596f752077696e210000000000000000000000000000000000000000000000008152506020019250505060405180910390a15b5b60028214156118d357600e6001611886611347565b0381548110151561189357fe5b9060005260206000200154600f819055506001600b6000600f54815260200190815260200160002060006101000a81548160ff0219169083151502179055505b5b5b607860195401421015156118ec576118eb611f09565b5b6118f4611f09565b505050565b6000809054906101000a900473ffffffffffffffffffffffffffffffffffffffff1681565b600b6020528060005260406000206000915054906101000a900460ff1681565b60175481565b60195481565b60096020528060005260406000206000915054906101000a900460ff1681565b6000600380600481111561197a57fe5b601860009054906101000a900460ff16600481111561199557fe5b1415156119a157600080fd5b60056008805490501415611a745760009150600091505b60048054905060001015611a6f576001600b600084815260200190815260200160002060006101000a81548160ff021916908315150217905515611a6257600160009054906101000a900473ffffffffffffffffffffffffffffffffffffffff16601260006101000a81548173ffffffffffffffffffffffffffffffffffffffff021916908373ffffffffffffffffffffffffffffffffffffffff16021790555081806001019250505b81806001019250506119b8565b611c62565b6005600a805490501415611b4357600091505b60058054905060001015611b3e5760016009600084815260200190815260200160002060006101000a81548160ff021916908315150217905515611b3157600260009054906101000a900473ffffffffffffffffffffffffffffffffffffffff16601360006101000a81548173ffffffffffffffffffffffffffffffffffffffff021916908373ffffffffffffffffffffffffffffffffffffffff16021790555081806001019250505b8180600101925050611a87565b611c61565b60006002601754811515611b5357fe5b06148015611b6657506005600880549050105b15611bd357600160009054906101000a900473ffffffffffffffffffffffffffffffffffffffff16601460006101000a81548173ffffffffffffffffffffffffffffffffffffffff021916908373ffffffffffffffffffffffffffffffffffffffff160217905550611c60565b60016002601754811515611be357fe5b06148015611bf657506005600a80549050105b15611c5f57600260009054906101000a900473ffffffffffffffffffffffffffffffffffffffff16601560006101000a81548173ffffffffffffffffffffffffffffffffffffffff021916908373ffffffffffffffffffffffffffffffffffffffff1602179055505b5b5b5b611c6a611f09565b5050565b601860009054906101000a900460ff1681565b60075481565b600d5481565b600160009054906101000a900473ffffffffffffffffffffffffffffffffffffffff1681565b600a81815481101515611cc257fe5b906000526020600020016000915090505481565b601560009054906101000a900473ffffffffffffffffffffffffffffffffffffffff1681565b6000806004811115611d0a57fe5b601860009054906101000a900460ff166004811115611d2557fe5b141515611d3157600080fd5b60006017541415611e4d5733600160006101000a81548173ffffffffffffffffffffffffffffffffffffffff021916908373ffffffffffffffffffffffffffffffffffffffff160217905550674563918244f4000034141515611d9357600080fd5b606060405190810160405280600160ff168152602001603760ff168152602001603860ff168152506004906003611dcb929190611f71565b5034600360008060009054906101000a900473ffffffffffffffffffffffffffffffffffffffff1673ffffffffffffffffffffffffffffffffffffffff1673ffffffffffffffffffffffffffffffffffffffff168152602001908152602001600020600082825401925050819055506017600081548092919060010191905055505b611e55611f09565b50565b600e81815481101515611e6757fe5b906000526020600020016000915090505481565b6000601154905090565b600f5481565b601360009054906101000a900473ffffffffffffffffffffffffffffffffffffffff1681565b6060600c805480602002602001604051908101604052809291908181526020018280548015611eff57602002820191906000526020600020905b815481526020019060010190808311611eeb575b5050505050905090565b6001601860009054906101000a900460ff166004811115611f2657fe5b016004811115611f3257fe5b601860006101000a81548160ff02191690836004811115611f4f57fe5b0217905550565b600060018210158015611f6a575060648211155b9050919050565b828054828255906000526020600020908101928215611fb2579160200282015b82811115611fb1578251829060ff16905591602001919060010190611f91565b5b509050611fbf9190611fc3565b5090565b611fe591905b80821115611fe1576000816000905550600101611fc9565b5090565b905600a165627a7a723058205d46882ba748f10e6730606818e91b85cca4a4a4d94f2d5759c5a1b3dbf889a10029",
  "source": "pragma solidity ^0.4.24;\n\n\ncontract BattleshipFactory {\n    address[] public deployedBattleships;\n\n    function createBattleship() public {\n\n        address newBattleship = new Battleship();\n        deployedBattleships.push(newBattleship);\n    }\n\n    function getDeployedBattleships() public view returns (address[]) {\n        return deployedBattleships;\n    }\n}\n\ncontract Battleship {\n\n    // ================================================================================\n    // GLOBAL VARIABLES\n    // ================================================================================\n    address public owner;\n    address public player1;\n    address public player2;\n    mapping (address => uint) public balances;\n\n    int[] internal p1Board;\n    int[] internal p2Board;\n\n    uint[] public gameId;\n    uint public minimumBet;\n\n    uint[] public p1Hits;\n    mapping(uint => bool) public p1Misses;\n    \n    uint[] public p2Hits;\n    mapping(uint => bool) public p2Misses;\n    \n    uint[] public p1LogOfGuesses;\n    uint public p1Position;\n\n    uint[] public p2LogOfGuesses;\n    uint public p2Position;\n    \n    uint public p1SuccessfulGuesses;\n    uint public p2SuccessfulGuesses;\n\n    address public badActor1;\n    address public badActor2;\n    \n    address public forfeit1;\n    address public forfeit2;\n\n    mapping(uint => Turn) turns;\n    uint public turnCount;      // decided to increment turnCount rather than\n                                // use `Turns[] public turns;` with State, i.e.,\n                                // create a State `nextTurn` and then\n                                // step through sequential turns with (a) functions,\n                                // e.g., `function turnOne() {}`, `function\n                                // turnTwo() {}` or (b) a for loop - whose\n                                // gas cost increases linearly with the number\n                                // of iterations\n    \n    struct Turn {\n        uint guess;\n        uint result;\n        bool gameOver;\n        mapping(uint => bool) p1Hits;\n        mapping(uint => bool) p1Misses;\n        mapping(uint => bool) p2Hits;\n        mapping(uint => bool) p2Misses;\n    }\n    \n    // ================================================================================\n    // MODIFIERS\n    // ================================================================================\n\n    modifier restricted() {\n        require(msg.sender == owner);\n        _;\n    }\n    \n\n    // ================================================================================\n    // STATE \n    // ================================================================================\n    enum Stages { \n        startOfGame,          // start game\n        acceptTheChallenge,    // begin play\n        takeYourTurnAttacking, // take turns attacking\n        gameIsOver,           // end of play\n        declareTheWinner       // declare winner and payout\n    }\n    \n    // This is the current stage.\n    Stages public stage = Stages.startOfGame;\n\n    uint public startTurn = now;\n\n    modifier atStage(Stages _stage) {\n        require(stage == _stage);\n        _;\n    }\n    \n    // This modifier goes to the next stage\n    // after the function is done.\n    modifier transitionNext()\n    {\n        _;\n        nextStage();\n    }\n    \n    function nextStage() internal {\n        stage = Stages(uint(stage) + 1);\n    }\n   \n    modifier timedTransitions() {\n        if (stage == Stages.takeYourTurnAttacking && now >= now + 2 minutes) {\n            nextStage();\n        }\n        // The other stages transition by transaction\n        _;\n    }\n\n    // ================================================================================\n    // EVENTS\n    // ================================================================================\n    event StartOfGame(uint turnCount);\n    event AcceptTheChallenge(uint turnCount);\n    event TakeTurnsAttacking(uint turnCount);\n    event GameOver(address _from, string _string);  // add uint _gameId\n    event DeclareWinner();\n    \n    // ================================================================================\n    // GAME \n    // ================================================================================\n\n    constructor() public payable {\n        owner = msg.sender;    // casino deploys contract and holds bets\n        balances[owner] = 0;\n        turnCount = 0;\n    }\n    \n    function isValidNumber(uint _guess) private pure returns (bool) {\n        return _guess >= 1 && _guess <= 100;\n    }\n    \n    function getLengthP1() public constant returns(uint length) {\n        return p1LogOfGuesses.length;\n    }\n    \n    function getLengthP2() public constant returns(uint length) {\n        return p2LogOfGuesses.length;\n    }\n    \n    function getHitsP1() public constant returns(uint length) {\n        return p1Hits.length;\n    }\n    \n    function getHitsP2() public constant returns(uint length) {\n        return p2Hits.length;\n    }\n    \n    // ================================================================================\n    // ACTION:  player 1 initiates a game by submitting the entry fee\n    // NOTE:    turncount is initialized to 0.  This is the first turn\n    // ================================================================================\n    \n    // player 1 initiates a game\n    // function startGame(address creator)             // see BattleshipFactory\n    function startGame()\n        public\n        payable\n        atStage(Stages.startOfGame)\n        transitionNext\n    {\n        if (turnCount == 0) {\n            // pay entry fee to owner aka casino / house\n            // player1 = creator;                   // see BattleshipFactory\n            player1 = msg.sender;\n            if (msg.value != 5 ether) revert();  // pay entry fee to owner\n            // require(msg.value > minimumBet);  // variable betting not enabled\n            // submit board\n            p1Board = [1,55,56];                // TEST ONLY - REMOVE\n            balances[owner] += msg.value;\n            turnCount++;                        // or turns.push(newTurn);\n        } \n    }\n    \n    // ================================================================================\n    // ACTION:  player 2 accepts the challenge by submitting their bet, and\n    //          takes the first shot by submitting a guess (aka board position)\n    // NOTE:    this is turn 2, so\n    //              player 1 is the 'odd' player [ modulo = 1 ]\n    //              player 2 is the 'even' player [ modulo = 0 ]\n    // ================================================================================\n    \n    // player 2 accepts the challenge, submits their bet, and\n    // takes the first shot by submitting a guess aka board position\n    function acceptChallenge(uint guess) \n        public\n        payable\n        atStage(Stages.acceptTheChallenge)\n        transitionNext\n    {\n        // Player 2 accepts the challenge / pays the entry fee \n        // and attacks player 1 (during turnCount 2), so \n        // player 1 is the 'odd' player [ modulo = 1 ]\n        // player 2 is the 'even' player [ modulo = 0 ]\n        \n        if (turnCount == 1) {\n            player2 = msg.sender;\n            if (msg.value != 5 ether) revert();\n            balances[owner] += msg.value;\n            // submit board\n            p2Board = [21,22,23];\n            // initiate an attack with a guess aka position\n            // save a 'log' of attacks / positions \n            p2LogOfGuesses.push(guess);\n            turnCount++;\n        }\n    }\n    \n    // ================================================================================\n    // ACTION:  send your guess to your opponent and send the result of their try to them\n    // NOTE:    Since their opponents board is 'hidden', only the player receiving \n    //          the hit can state whether a hit or miss occurred\n    //\n    //          hit = 1; miss = 2\n    //\n    //          IMPORTANTLY, this is designed to catch a cheater.  We assume players\n    //          will honestly return the result of an attack, i.e., correctly send a hit\n    //          or miss.  A dishonest player might mark a hit as a miss.  When their \n    //          board is revealed, we'll compare the shots marked misses against the\n    //          positions they submitted.\n    // ================================================================================\n    \n    // send your guess to opponent and\n    // send result of opponent's try to them\n    // hit = 1\n    // miss = 2\n\n    function takeTurnsAttacking(uint guess, uint result)\n        public \n        payable\n        timedTransitions\n        atStage(Stages.takeYourTurnAttacking)\n        transitionNext\n    {   \n        \n        if ((turnCount != 1) && (turnCount % 2 == 1)) {     // player 2\n            startTurn;                               // to catch forfeits    \n            require(isValidNumber(guess));\n            // make a new guess aka attack / position\n            // and save your guess\n            p2LogOfGuesses.push(guess);\n            // send P1 the result of their attack\n            player2 = msg.sender;\n            turnCount++;\n            \n        } else if (turnCount % 2 == 0) {  // player 1\n            startTurn;                               // to catch forfeits   \n            require(isValidNumber(guess));\n            // make a new guess aka attack / position\n            // and save your guess\n            p1LogOfGuesses.push(guess);\n            // send P2 the result of their attack\n            player1 = msg.sender;\n            turnCount++;\n            \n        // Since P1 knows if P2's guess was a hit / miss, when sending \n        // the 'result', P1 logs the hit or miss using the\n        // position logged by P2 when sending their guess\n        }\n        \n        getLengthP1();\n        getLengthP2();\n        \n        if ((turnCount != 1) && (turnCount % 2 == 1)) {         // player 2                              // to catch forfeits    \n            if (result == 1) { \n                p1Position = p1LogOfGuesses[getLengthP1()-1];\n                p1Hits.push(p1Position);\n                p1SuccessfulGuesses++;\n                if (p1SuccessfulGuesses == 5) {\n                    // Turn storage turn = turn;\n                    // turn.gameOver = true;\n                    emit GameOver(player2, \"You win!\");\n                }\n            }\n            if (result == 2) {\n                p1Position = p1LogOfGuesses[getLengthP1()-1];\n                p1Misses[p1Position] = true;\n            }\n        } else if (turnCount % 2 == 0) {                        // player 1\n            if (result == 1) {\n                p2Position = p2LogOfGuesses[getLengthP2()-1];\n                p2Hits.push(p1Position);\n                p2SuccessfulGuesses++;\n                if (p2SuccessfulGuesses == 5) {\n                    // turn.gameOver = true;\n                    emit GameOver(player1, \"You win!\");\n                }\n            }\n            if (result == 2) {\n                p2Position = p2LogOfGuesses[getLengthP2()-1];\n                p2Misses[p2Position] = true;\n            }\n        } if (now >= startTurn + 2 minutes) {\n            nextStage();\n        } \n    }\n    \n    function getP1LogOfGuesses() public view returns(uint[]) {\n        return p1LogOfGuesses;\n    }\n    \n    function getP2LogOfGuesses() public view returns(uint[]) {\n        return p2LogOfGuesses;\n    }\n    \n    function getP1Hits() public view returns(uint) {\n        return p1SuccessfulGuesses;\n    }\n    \n    function getP2Hits() public view returns(uint) {\n        return p2SuccessfulGuesses;\n    }\n    \n    // ================================================================================\n    // ACTION:  game ends when:\n    //          1. a player has 17 hits, i.e., sinks all of their opponent's ships\n    //          2. a player walks away from the game, i.e., does not respond to an\n    //             attack in the alloted 2 minutes\n    // NOTE:    Payout:\n    //          1. Cheating: \n    //              (a) if one player cheats, they lose their funds. \n    //                  - owner gets to keep 0.2 ether, \n    //                  - winning player gets 0.8 ether\n    //              (b) if both players cheat, the owner keeps the entire pot\n    //          2. Sore loser:\n    //              We create an incentive to complete the game:\n    //               (a) player abandoning game rather than announcing win gets 0\n    //               (b) owner gets to keep 0.2 ether, \n    //               (c) winning player gets 0.8 ether\n    //          3. Fair win:\n    //              (a) owner gets to keep 0.2 ether,\n    //              (b) losing player gets 0.2 ether,\n    //              (c) winning player gets 0.6 ether.\n    // ================================================================================              \n    \n    function gameOver() \n        public \n        payable\n        atStage(Stages.gameIsOver)\n        transitionNext\n    {                                     // reveal boards\n        if (p1Hits.length == 5) {\n            // reveal of P1's board\n            // compare to misses P1 reported to P2\n            uint i = 0;\n            for (i = 0; 0 < p1Board.length; i++) {\n                if (p2Misses[i] = true) {\n                    badActor1 = player1;    // p1 cheated by calling a hit a miss\n                    i++;\n                } \n            }\n        } else if (p2Hits.length == 5) {   \n            // reveal of P2's board\n            // compare to misses P2 reported to P1\n\n            for (i = 0; 0 < p2Board.length; i++) {\n                if (p1Misses[i] = true) {\n                    badActor2 = player2;    // p2 cheated by calling a hit a miss\n                    i++;\n                } \n            }     \n             \n        // forfeit if do not respond in 2 minutes\n        // implies (a) still prior turn / opponent's turn because turnCount hasn't incremented \n        // implies winning player will have less hits than the number required to win\n        } else if ((turnCount % 2 == 0) && (p1Hits.length < 5)) {\n                forfeit1 = player1;\n            } else if ((turnCount % 2 == 1) && (p2Hits.length < 5)) {\n                forfeit2 = player2;\n            }\n        } \n    \n    function declareWinner() \n        public \n        payable\n        atStage(Stages.declareTheWinner)\n    {   \n        if ((badActor1 == 0) && (badActor2 == 0)) {  // can test for null address with 0\n            if (p1Hits.length == 5) {   // for test purposes 5 rather than 17\n                                        // p2 said \"You win!\"\n                                        // so p2 earns completion incentive\n                balances[owner] -= 8;\n                balances[player1] += 6;\n                balances[player2] += 2;\n            \n            } else if (p2Hits.length == 5) { // for test purposes 5 rather than 17\n                                             // p1 said \"You win!\"\n                                             // so p1 earns completion incentive\n                balances[owner] -= 8;\n                balances[player2] += 6;\n                balances[player1] += 2;\n\n        } if (forfeit1 != 0) {    // p1 forteit\n            balances[owner] -= 8;\n            balances[player2] += 8;\n        } if (forfeit2 != 0) {    // p2 forfeit\n            balances[owner] -= 8;\n            balances[player2] += 8;\n        } if ((badActor1 != 0) && (badActor2 != 0)) {    // do nothing,\n        }                                          // owner keeps the pot\n        }\n    \n    }\n\n    // for use in testing\n    // function fetchTurn() public view returns (uint guess, uint result, bool gameOver) {\n    //     guess = turns[guess].guess;\n    //     result = turns[result].result;\n    //     return (guess, result, gameOver);\n    // }\n}",
  "sourcePath": "/Users/dougharman/Battleship/contracts/Battleship.sol",
  "compiler": {
    "name": "solc",
    "version": "0.4.24+commit.e67f0147.Emscripten.clang"
  },
  "schemaVersion": "2.0.1",
  "updatedAt": "2018-08-17T01:12:39.330Z"
}