{
  "contractName": "CounterLib",
  "abi": [
    {
      "constant": false,
      "inputs": [
        {
          "name": "self",
          "type": "CounterLib.Counter storage"
        }
      ],
      "name": "incremented",
      "outputs": [
        {
          "name": "",
          "type": "uint256"
        }
      ],
      "payable": false,
      "stateMutability": "nonpayable",
      "type": "function"
    }
  ],
  "bytecode": "0x60df61002f600b82828239805160001a6073146000811461001f57610021565bfe5b5030600052607381538281f30073000000000000000000000000000000000000000030146080604052600436106056576000357c0100000000000000000000000000000000000000000000000000000000900463ffffffff1680632ecff27f14605b575b600080fd5b818015606657600080fd5b506083600480360381019080803590602001909291905050506099565b6040518082815260200191505060405180910390f35b6000816000016000815460010191905081905590509190505600a165627a7a7230582061fe09705567aa1e802a4ab63a6412ef434f37f76fafeb753320294b519f8a840029",
  "source": "pragma solidity ^0.4.24;\n\n\nlibrary CounterLib {\n    struct Counter { uint i; }\n\n    function incremented(Counter storage self) public returns (uint) {\n        return ++self.i;\n    }\n}",
  "sourcePath": "/Users/dougharman/Battleship-ConsenSys-Final-Project-Doug-Harman/contracts/CounterLib.sol",
  "compiler": {
    "name": "solc",
    "version": "0.4.24+commit.e67f0147.Emscripten.clang"
  },
  "schemaVersion": "2.0.1",
  "updatedAt": "2018-08-27T00:52:12.152Z"
}